:020000040800F2
:10000000A0DB0024E1020008190C010849E80008FF
:10001000110C0108D10B0008098D01080000000037
:10002000000000000000000000000000E1180108CE
:10003000A93500080000000041100108D91B010883
:10004000FB020008FB020008FB020008FB0200089C
:10005000FB020008FB020008FB020008FB0200088C
:10006000FB020008FB020008FB0200082927000829
:100070003927000849270008592700086927000880
:100080007927000889270008FB020008513700087B
:10009000E9370008FB020008FB020008FB02000829
:1000A000FB020008FB020008FB020008FB0200083C
:1000B000291E0108FB020008FB020008FB020008E1
:1000C000FB020008FB020008FB020008FB0200081C
:1000D000F1160108FB02000849360108FB0200087E
:1000E000FB020008FB02000800000000FB02000801
:1000F000FB020008FB020008FB020008FB020008EC
:10010000FB020008FB020008FB020008FB020008DB
:10011000FB020008B1260108FB020008FB020008F0
:10012000FB020008FB020008FB020008FB020008BB
:10013000FB020008FB020008FB020008FB020008AB
:1001400000000000000000000000000000000000AF
:10015000FB020008FB020008FB020008FB0200088B
:10016000FB020008FB020008FB020008FB0200087B
:10017000FB020008910C0108FB02000800000000CF
:10018000FB020008FB020008FB020008FB0200085B
:10019000FB020008FB020008FB020008FB0200084B
:1001A000FB020008FB020008FB0200080000000040
:1001B000FB020008FB020008FB020008FB0200082B
:1001C000FB020008FB020008000000000000000025
:1001D0000000000000000000FB020008000000001A
:1001E000000000000000000000000000000000000F
:1001F0000000000000000000FB020008FB020008F5
:10020000FB020008FB02000800000000FB020008DF
:10021000FB020008FB020008FB020008FB020008CA
:10022000FB02000800000000FB02000800000000C4
:10023000FB020008FB02000800000000FB020008AF
:10024000FB020008FB020008FB020008FB0200089A
:10025000FB020008FB020008FB020008FB0200088A
:10026000FB020008FB020008FB020008FB0200087A
:10027000FB020008FB020008FB020008000000006F
:10028000FB020008FB020008FB020008FB0200085A
:1002900000000000FB020008FB0200080000000054
:1002A00000000000FB020008FB020008FB0200083F
:1002B00039360108FB020008FB02000881380008FB
:1002C000FB020008FB020008FB020008DFF80CD06C
:1002D00000F0B6F800480047F1AD0108A0DB0024AB
:1002E0000648804706480047FEE7FEE7FEE7FEE7D0
:1002F000FEE7FEE7FEE7FEE7FEE7FEE7E91C010892
:10030000CD0200082DE9F05F0546002092469B468D
:1003100088460646814640241BE02846414647461B
:10032000224600F053F853465A46C01A914110D362
:1003300011461846224600F03AF82D1A67EB0108DC
:100340004F4622460120002100F031F817EB00094A
:100350004E41201EA4F10104DFDC484631462A4606
:100360004346BDE8F09F40EA01039B0703D009E044
:1003700008C9121F08C0042AFAD203E011F8013B91
:1003800000F8013B521EF9D27047D2B201E000F8EA
:10039000012B491EFBD270470022F6E710B5134629
:1003A0000A4604461946FFF7F0FF204610BD202AF2
:1003B00004DB203A00FA02F1002070479140C2F1BC
:1003C000200320FA03F3194390407047202A04DBEE
:1003D000203A21FA02F00021704721FA02F3D040BE
:1003E000C2F120029140084319467047F0B400F072
:1003F000004221F0004120F00040CE0DC30DC1F3BA
:10040000160141F40001C0F316004C42154640F4B9
:100410000000761E09E010EB440002D582F0004295
:1004200040428842F7D840005B1EB342F9DA18B167
:10043000F0BC002100F01FB82846F0BC7047000057
:10044000064C074D06E0E06840F0010394E8070021
:1004500098471034AC42F6D3FFF73CFFE4DD0108C7
:1004600004DE01080029A8BF7047401C490008BFEE
:1004700020F00100704710B4B0FA80FC00FA0CF0D4
:1004800050EA010404BF10BC704749B1CCF120040C
:1004900021FA04F411FA0CF118BF01212143084399
:1004A000A3EB0C01CB1D4FEA00614FEA102042BFC5
:1004B000002010BC704700EBC35010440029A4BFBB
:1004C00010BC7047401C490008BF20F0010010BC60
:1004D000704770B58D1810F8014B14F0030201D16C
:1004E00010F8012B231106D110F8013B03E010F89E
:1004F000016B01F8016B521EF9D1ABB110F8012B61
:1005000004F00C048A1A0C2C03D0A2EB84129B1C5E
:1005100008E010F8014BA2EB0422F8E712F8014BB7
:1005200001F8014B5B1EF9D5A942D4D3002070BD60
:1005300080B540F60000C5F602000122114607F022
:1005400067FF80BD0000000080B540F60000C5F6E2
:1005500002000121002207F05BFF80BD00000000C7
:1005600080B540F60000C5F602000821012207F020
:100570004FFF80BD0000000080B540F60000C5F6CA
:1005800002000821002207F043FF80BD00000000A8
:1005900080B584B00390FFF7D7FF922000F040FAB7
:1005A00042F64651C2F200411220062200F000FA43
:1005B000FFF7BEFF42F62230C2F20040007800286A
:1005C00054D0FFE742F64653C2F2004318785978F8
:1005D00040EA012042F64451C2F200410880B1F9DC
:1005E000000000EE100AB8EEC00A41F2E810C2F2B4
:1005F000004090ED001A20EE011A039A92ED082AAD
:1006000092ED0C0A11EE020A82ED000A9A7893F834
:1006100003C042EA0C220A80B1F9002000EE102A41
:10062000B8EEC00A90ED001A20EE011A039A92ED7E
:10063000082A92ED0D0A11EE020A82ED010A1A79DA
:100640005B7942EA03220A80B1F9001000EE101A29
:10065000B8EEC00A90ED001A20EE010A039890ED62
:10066000081A20EE010A80ED020A4FE042F64653D6
:10067000C2F200431878597840EA012042F644510A
:10068000C2F200410880B1F9000000EE100AB8EE95
:10069000C00A41F2E810C2F2004090ED001A20EECC
:1006A000010A039A92ED081A20EE010A82ED000A6F
:1006B0009A7893F803C042EA0C220A80B1F900202C
:1006C00000EE102AB8EEC00A90ED001A20EE010AE2
:1006D000039A92ED081A20EE010A82ED010A1A79B6
:1006E0005B7942EA03220A80B1F9001000EE101A89
:1006F000B8EEC00A90ED001A20EE010A039890EDC2
:10070000081A20EE010A80ED020AFFE7FFF734FF26
:1007100042F64651C2F2004102910020082200F048
:1007200047F9FFF71DFF029800780F2840F09880E6
:10073000FFE742F62230C2F20040007800284AD09B
:10074000FFE742F64653C2F200439878D97840EA70
:10075000012042F64451C2F200410880B1F9000084
:1007600000EE100AB8EEC01A41F2EC10C2F20040DE
:1007700090ED002A039A92ED090A11EE020A82ED29
:10078000030A1A7993F805C042EA0C220A80B1F9EB
:10079000002000EE102AB8EEC01A90ED002A039A4D
:1007A00092ED0A0A11EE020A82ED040A9A79DB79C7
:1007B00042EA03220A80B1F9001000EE101AB8EEE6
:1007C000C01A90ED002A039890ED0B0A11EE020A70
:1007D00080ED050A43E042F64653C2F200439878A2
:1007E000D97840EA012042F64451C2F20041088023
:1007F000B1F9000000EE100AB8EEC00A41F2EC10A8
:10080000C2F2004090ED001A20EE010A039A82ED38
:10081000030A1A7993F805C042EA0C220A80B1F95A
:10082000002000EE102AB8EEC00A90ED001A20EE6B
:10083000010A039A82ED040A9A79DB7942EA0322DB
:100840000A80B1F9001000EE101AB8EEC00A90ED5F
:10085000001A20EE010A039880ED050AFFE7FFE782
:10086000FFF772FEA22000F0DBF842F64651C2F21A
:10087000004101912220022200F09AF8FFF758FE71
:10088000019908784978C00040EA511142F6445075
:10089000C2F200400180B0F90000B0F5806F09DBC2
:1008A000FFE742F64451C2F200410888A0F500601B
:1008B0000880FFE742F64450C2F20040B0F9000061
:1008C00000EE100AB8EEC01AB4EE002AB3EE070A22
:1008D00001EE020A039880ED070A04B080BD000013
:1008E00080B584B003908DF80B10039842F65051F8
:1008F000C2F20041086044F2B471C2F200410191B9
:100900000020087019F06CF801990246087810432D
:10091000087019F045F901990246087810430870EB
:100920009DF80B0038B1FFE742F60450C2F20040D8
:1009300000F0C2F931E042F60451C2F200410091E8
:1009400049F6F930C3F6283048624AF2DE50C3F661
:100950008920886248F68D40C3F6EC20C86244F2D4
:100960004A40C3F69960086348F23200CBF6B150B2
:1009700048630020886348F25960C4F21B10C863C2
:1009800091ED0F1A9FED080A80EE010A81ED080A29
:100990000020C4F220208861FFE744F2B470C2F264
:1009A0000040007804B080BDC3F51C410000000089
:1009B00080B584B08DF80F0002918DF807209DF866
:1009C0000F0040F0800000F02BF8FFE79DF80700D3
:1009D00070B1FFE7552000F023F8029908700298E3
:1009E000013002909DF8070001388DF80700EDE70F
:1009F00004B080BD0000000080B582B08DF8070013
:100A000000919DF8070040F0800000F009F85520A3
:100A100000F006F80099087002B080BD00000000E8
:100A200080B582B08DF8070042F65050C2F2004007
:100A300000686A464FF47A7111600DF107010DF1FB
:100A4000060201230CF000F99DF8060002B080BDFB
:100A500080B582B08DF807008DF806109DF807006C
:100A6000FFF7DEFF9DF80600FFF7DAFF02B080BD5A
:100A700080B540F20001C2F2004101F1120245F2DC
:100A8000E470C2F20040122312F0E6FD40F22401AD
:100A9000C2F2004101F1100245F25070C2F2004072
:100AA000102312F0D9FD40F24401C2F2004101F1DD
:100AB0001F0245F2BC60C2F200401F2312F0CCFDC1
:100AC00080BD00000000000083B002900191009200
:100AD000009890ED002A90ED014A90ED026A90EDA9
:100AE000035AB6EE001AB0EE417A06EE467A05EEEB
:100AF000457A029824EE060A02EE450AD0ED000A75
:100B0000D0ED011A90ED023A20EE210A07EE200AFC
:100B100022EE062A04EE052A02EE030A30EE000A4F
:100B2000019880ED000A009890ED004A90ED015A7E
:100B300090ED022A90ED036A24EE067A05EE027A21
:100B40000298B0EE410A05EE450A06EE460AD0EDDF
:100B5000000AD0ED011A90ED023A20EE210A07EECC
:100B6000200A22EE062A04EE452A02EE030A30EE9F
:100B7000000A019880ED010A009890ED000A90EDBE
:100B8000014A90ED023A90ED032A24EE025A00EE5B
:100B9000435A029820EE040A03EE020A90ED006A1E
:100BA00090ED017A90ED022A20EE070A05EE060A82
:100BB00004EE441A03EE431A01EE020A30EE000A74
:100BC000019880ED020A03B07047000000000000A9
:100BD000FFE7FEE70000000084B08DF80F000291EF
:100BE000ADF806209DF80F000146009123281DD87E
:100BF0000099DFE801F012131415161B1B1B1B1BB9
:100C00001B1B1B1B1B1B1B1B1B1B1B1B1B1B1B1B34
:100C10001B1B1B1B1B1B1718191A08E007E006E01B
:100C200005E004E003E002E001E000E0FFE700206F
:100C300004B0704700000000002070470000000072
:100C400080B582B044F68C00C2F20040009043F6BA
:100C50000071C2F200410022019213F069FA00987B
:100C600043F20071C2F2004113F042FA019802B05F
:100C700080BD00000000000080B582B001900091AE
:100C80000098008816F000FA002002B080BD000035
:100C900083B0029001918DF8032000208DF80200AE
:100CA0009DF9020003B0704780B582B00190FFE764
:100CB00019F0CEFBFCE7000080B592B01190002047
:100CC00010900F9002F084FB42F61860C2F20040D0
:100CD00080ED000AFFE702F07BFB42F61860C2F2EB
:100CE000004090ED001A30EE410AB2EE041AB4EE64
:100CF000410AF1EE10FA1EDDFFE7119949F6F930CD
:100D0000C3F62830486211994AF2DE50C3F68920B2
:100D10008862119948F68D40C3F6EC20C86211999B
:100D200048F25960C4F21B10C86311990020C4F244
:100D300020208861ECE29FEDE70A02F0F5FA1199B4
:100D40000020C86311994862119988621199C8629C
:100D5000ADF81200FFE7BDF8120041F2B451C2F243
:100D600000410988884280F2DF81FFE7FFF7ECFB52
:100D70009220FFF755FE12200FA902910622FFF7DD
:100D800017FEFFF7D5FB9DF83C009DF83D1040EAAB
:100D90000120ADF83A00BDF93A0000EE100AB8EEB5
:100DA000C00A41F2E810C2F2004090ED001A20EEB5
:100DB000010A119981ED000A9DF83E109DF83F202F
:100DC00041EA0221ADF83A10BDF93A1000EE101ACE
:100DD000B8EEC00A90ED001A20EE010A119981EDDB
:100DE000010A9DF840109DF8412041EA0221ADF82A
:100DF0003A10BDF93A1000EE101AB8EEC00A90EDA4
:100E0000001A20EE010A119880ED020A119890ED67
:100E1000002A90ED010A90ED021A20EE000A02EE7F
:100E2000020A01EE010A1CF0FEF88DED070A9DEDA5
:100E3000071A119890ED0F0A30EE010A80ED0F0AA3
:100E4000FFF79AFB029900200822FFF7B1FDFFF798
:100E500087FB9DF83C000F285FD1FFE79DF83E001F
:100E60009DF83F1040EA0120ADF83A00BDF93A0084
:100E700000EE100AB8EEC00A41F2EC10C2F20040D7
:100E800090ED001A20EE010A119981ED030A1199E3
:100E900091ED031A91ED090A30EE010A81ED090A7C
:100EA0009DF840109DF8412041EA0221ADF83A102A
:100EB000BDF93A1000EE101AB8EEC00A90ED001A13
:100EC00020EE010A119981ED040A119991ED041A9D
:100ED00091ED0A0A30EE010A81ED0A0A9DF84210EE
:100EE0009DF8432041EA0221ADF83A10BDF93A10CD
:100EF00000EE101AB8EEC00A90ED001A20EE010ABA
:100F0000119880ED050A119890ED051A90ED0B0AE5
:100F100030EE010A80ED0B0AFFE7BDF8120038BB86
:100F2000FFE7079806900798059000208DF81100BC
:100F3000FFE79DF81100022819DCFFE711989DF8E2
:100F4000112000EB8200C0680BA941F82200119823
:100F50009DF8112000EB8200C06808A941F822002A
:100F6000FFE79DF8110001308DF81100E1E762E024
:100F70009DED070A9DED061AB4EE410AF1EE10FA56
:100F800003DDFFE707980690FFE79DED070A9DED5B
:100F9000051AB4EE410AF1EE10FA03DAFFE70798FA
:100FA0000590FFE700208DF81000FFE79DF8100086
:100FB00002283FDCFFE711989DF8101000EB81003C
:100FC00090ED030A0BA800EB810090ED001AB4EE3F
:100FD000410AF1EE10FA0ADDFFE711989DF81020A2
:100FE00000EB8200C0680BA941F82200FFE71198CE
:100FF0009DF8101000EB810090ED030A08A800EBAB
:10100000810090ED001AB4EE410AF1EE10FA0ADA0E
:10101000FFE711989DF8102000EB8200C06808A936
:1010200041F82200FFE7FFE79DF8100001308DF83E
:101030001000BBE7FFE79DED060A9DED051A30EEB7
:10104000410A44F2BC70C2F2004080ED000A002068
:101050008DF80F00FFE79DF80F0002281DDCFFE769
:101060009DF80F100BA800EB810090ED000A08A876
:1010700000EB810090ED001A30EE410A44F680004A
:10108000C2F2004000EB810080ED000AFFE79DF80E
:101090000F0001308DF80F00DDE744F2BC70C2F2A2
:1010A000004090ED000AB6EE001AB4EE410AF1EEEF
:1010B00010FA2DDCFFE744F68000C2F2004090ED0C
:1010C000000A9FEDE61AB4EE410AF1EE10FA1FDCB9
:1010D00002E000BF0AD7A33B44F68000C2F2004002
:1010E00090ED010A9FEDDD1AB4EE410AF1EE10FA1F
:1010F0000EDCFFE744F68000C2F2004090ED020AE9
:101100009FEDD61AB4EE410AF1EE10FA01DDFFE7C9
:101110000AE09FEDD30A02F007F9FFE7BDF81200DD
:101120000130ADF8120016E641F2B450C2F20040B0
:10113000008800EE100AB8EE401A119890ED0F0AE0
:1011400080EE010A80ED0F0A00208DF80E00FFE707
:101150009DF80E0002281BDCFFE741F2B450C2F2FA
:101160000040008800EE100AB8EE401A11989DF871
:101170000E1000EB810090ED090A80EE010A80ED6F
:10118000090AFFE79DF80E0001308DF80E00DFE739
:10119000FFF7DAF9A220FFF743FC22200FA9022271
:1011A000FFF706FCFFF7C4F99DF83C009DF83D10E1
:1011B000C00040EA5110ADF83A00BDF93A00B0F570
:1011C000806F07DBFFE7BDF83A00A0F50060ADF8DF
:1011D0003A00FFE7BDF93A0000EE100AB8EEC01A77
:1011E000B4EE002AB3EE070A01EE020A119880ED70
:1011F000060A44F20871C2F20041088801300880F2
:10120000FFE744F2BC70C2F2004090ED000A0120FA
:10121000B6EE001AB4EE410AF1EE10FA019071DC5C
:10122000FFE7119890ED0F0A9FED8E1A30EE010A3C
:10123000B0EEC00A0120B6EE001AB4EE410AF1EE9B
:1012400010FA01905EDCFFE744F68000C2F2004035
:1012500090ED000A01209FED811AB4EE410AF1EEF3
:1012600010FA01904EDCFFE744F68000C2F2004025
:1012700090ED010A01209FED791AB4EE410AF1EEDA
:1012800010FA01903EDCFFE744F68000C2F2004015
:1012900090ED020A01209FED711AB4EE410AF1EEC1
:1012A00010FA01902EDCFFE7119890ED090AB0EEDC
:1012B000C00A01209FED6C1AB4EE410AF1EE10FA5B
:1012C00001901FDCFFE7119890ED0A0AB0EEC00A0A
:1012D00001209FED651AB4EE410AF1EE10FA01907B
:1012E00010DCFFE7119890ED0B0AB0EEC00A9FEDFD
:1012F0005E1A0020B4EE410AF1EE10FAC8BF0120D8
:101300000190FFE70198C00700287FF4E4ACFFE7F5
:10131000119890ED0F1A9FED550A80EE010A80EDAD
:10132000080A0020ADF80C00FFE7BDF80C0041F200
:10133000B651C2F200410988884280F28C80FFE7F2
:10134000FFF702F99220FFF76BFB12200FA906228C
:10135000FFF72EFBFFF7ECF89DF83C009DF83D10E1
:1013600040EA0120ADF83A00BDF93A0000EE100A5B
:10137000B8EEC00A41F2E810C2F2004090ED001A47
:1013800020EE010A119991ED081A20EE010A81ED73
:10139000000A119991ED000A91ED0C1A9FED343A73
:1013A00020EE030A9FED332A01EE020A81ED0C0ABA
:1013B0009DF83E109DF83F2041EA0221ADF83A1019
:1013C000BDF93A1000EE101AB8EEC00A90ED001AFE
:1013D00020EE010A119991ED081A20EE010A81ED23
:1013E000010A119991ED010A91ED0D1A20EE030AFF
:1013F00001EE020A81ED0D0A9DF840109DF8412092
:1014000041EA0221ADF83A10BDF93A1000EE101A87
:10141000B8EEC00A90ED001A20EE010A119890ED86
:10142000081A20EE010A80ED020A119890ED020AD6
:1014300090ED0E1A20EE030A01EE020A80ED0E0A6C
:101440009FED070A01F070FFFFE7BDF80C000130C7
:10145000ADF80C0069E712B080BD00BF9A99193E43
:101460006F12033ACDCC1CC10AD7233CC3F51C41F3
:10147000CDCC4C3ECDCC4C3F80B584B08DED020A36
:101480009DED021A9FED190A30EE410ADFED180AB0
:101490001BF0ACFC8DED010A9DED010AB0EEC00A17
:1014A0009FED141A30EE010AB0EEC00A9FED121A39
:1014B000B4EE410AF1EE10FA04DAFFE7FF208DF8EE
:1014C0000F000FE09DED010AB5EE400AF1EE10FAB3
:1014D00004DAFFE7FF208DF80F0003E001208DF80C
:1014E0000F00FFE79DF90F0004B080BDCDCCCC3FCD
:1014F000DB0FC940DB0F49C0BD3786350000000057
:1015000083B002900191019802998A68096A411A90
:1015100000209142009014D3FFE7029890ED0A1A40
:1015200090ED0C0A30EE410AB0EEC00A9FED071AAA
:101530000020B4EE410AF1EE10FAB8BF012000908D
:10154000FFE7009800F0010003B07047CDCC4C3DA0
:1015500080B582B001900091009800F0E1FD019803
:1015600028B1FFE70199042081F88200FFE70420F9
:1015700002B080BD0000000080B584B00290002061
:1015800030B9FFE70298406818F02EF958B917E013
:10159000029890ED010AB7EEC00A51EC100B18F05A
:1015A000EFF868B1FFE7029890ED010AB0EEC00ACB
:1015B000B6EE001AB4EE410AF1EE10FA04DBFFE7D2
:1015C00000208DF80F007CE000208DF80700FFE779
:1015D0009DF80700012870D8FFE702989DF80710D2
:1015E00000EB011008300090002030B9FFE70098B0
:1015F000006818F0F9F860B954E0009890ED000A1E
:10160000B7EEC00A51EC100B18F0BAF8002849D018
:10161000FFE7009890ED001A9FED2C0A30EE410A8A
:10162000DFED2B0A1BF0E2FBB0EEC00A9FED291A9A
:10163000B4EE410AF1EE10FA34DAFFE7009890EDCB
:10164000000A9FED251AB4EE410AF1EE10FA29DBEB
:10165000FFE7009890ED000A9FED201AB4EE410AD2
:10166000F1EE10FA1EDCFFE7009890ED021A9FEDF4
:101670001C0A30EE410AB0EEC00A9FED1A1AB4EE11
:10168000410AF1EE10FA0DDAFFE7009890ED030A37
:10169000B0EEC00A9FED0F1AB4EE410AF1EE10FA57
:1016A00004DBFFE700208DF80F000AE0FFE79DF85C
:1016B000070001308DF807008AE701208DF80F0040
:1016C000FFE79DF80F0004B080BD00BFCDCCCC3F3C
:1016D000DB0FC940CDCC4C3DCDCCCC3EE17A344083
:1016E00004560E3E0AD7A33C80B582B08DED010AA8
:1016F000002040B9FFE7019818F076F80146002075
:10170000009069B925E09DED010AB7EEC00A51ECE1
:10171000100B18F035F8014600200090C9B1FFE722
:101720009DED010A00209FED0D1AB4EE410AF1EE85
:1017300010FA00900DDBFFE79DED010A9FED081AFE
:101740000020B4EE410AF1EE10FAD8BF012000905B
:10175000FFE7009800F0010002B080BDCDCCCC3E88
:10176000E17A34400000000081B00090009808B990
:10177000FFE716E00099002081F88000009981F8C9
:101780008100009981F882000099C1F884000099D5
:10179000C1F88800009981F88C00009981F88D00CB
:1017A000FFE701B07047000070B598B01690159132
:1017B0001492139300208DF84B00139800F0B0FCA6
:1017C000169830B1FFE7159818B1FFE7139838B9AC
:1017D000FFE716981399FFF7BBFE8DF85F0000E254
:1017E0001598007838B9FFE71698FFF7BDFF00207D
:1017F0008DF85F00F5E1169890F88200042804D176
:10180000FFE704208DF85F00EBE1169890F8820066
:1018100070B9FFE71698FFF7A7FF14981699C1F85B
:1018200084001699012081F882008DF84B00FFE7B3
:10183000169890F8820001460F91012806D0FFE724
:101840000F9802380228C0F05881BDE1149816990B
:10185000D1F88410401A42F2C071C0F209018842E6
:1018600007D3FFE716981399FFF772FE8DF85F0014
:10187000B7E1169890F88010002002290E9009D147
:10188000FFE7169890F881000238B0FA80F040091E
:101890000E90FFE70E9800F001008DF84A001698B0
:1018A00090F8801000200D9041BBFFE7169890F84B
:1018B0008C1001200C90F1B9FFE7159890ED020A09
:1018C000FFF712FF014601200C90A1B9FFE79DF838
:1018D0004B1000200B9059B9FFE716981599083165
:1018E000149A00F02DFB002818BF01200B90FFE791
:1018F0000B980C90FFE70C980D90FFE70D9800F007
:1019000001008DF84500169890F8811000200A908B
:1019100049BBFFE7169890F88D1001200990F9B99E
:10192000FFE7159890ED060AFFF7DEFE014601205D
:101930000990A9B9FFE79DF84B100020089061B904
:10194000FFE71698403015991831149A00F0F8FA0C
:10195000002818BF01200890FFE708980990FFE7CA
:1019600009980A90FFE70A9800F001008DF84400FA
:101970009DF845100120079089B9FFE7169890F867
:10198000801001200129079009D0FFE7169890F8F0
:1019900080000238B0FA80F040090790FFE707980E
:1019A00000F001008DF847009DF8441001200690DA
:1019B00089B9FFE7169890F8811001200129069057
:1019C00009D0FFE7169890F881000238B0FA80F04D
:1019D00040090690FFE7069800F001008DF84600E8
:1019E0009DF847100020059039B1FFE79DF84600AB
:1019F000002818BF01200590FFE7059800F00100BE
:101A00008DF849009DF849008DF848001698159901
:101A100001F108029DF84B309DF845109DF849E012
:101A20009DF84A40149D139EEC46CCF81060CCF80B
:101A30000C50CCF80840CCF804E0CCF800100021A1
:101A400000F0D6F88DF843009DF84300032805D038
:101A5000FFE79DF84300042807D1FFE71698139984
:101A6000FFF776FD8DF85F00BBE01698159901F140
:101A700018029DF84B309DF844109DF848E09DF801
:101A80004A40149DDDF84CC00CF10806EC46CCF839
:101A90001060CCF80C50CCF80840CCF804E0CCF83E
:101AA0000010012100F0A4F88DF843009DF84300D8
:101AB000032805D0FFE79DF84300042807D1FFE77E
:101AC00016981399FFF744FD8DF85F0089E016988A
:101AD00090F8800004280FD1FFE7169890F8810055
:101AE000042809D1FFE714981699C1F888001699BF
:101AF000022081F88200FFE76DE01698159901F148
:101B00000802149BDDF84CC06946C1F810C0CB60D8
:101B100000238B604B600B60194600F069F88DF86C
:101B200043009DF84300022807D0FFE71698139959
:101B3000FFF70EFD8DF85F0053E01698159901F13F
:101B40001802149B139901F1080C6946C1F810C0E2
:101B5000CB6000238B604B600B60012100F048F8E4
:101B60008DF843009DF84300022807D0FFE7169840
:101B70001399FFF7EDFC8DF85F0032E0169890F8AE
:101B80008200032804D1FFE703208DF85F0028E0DE
:101B90001598FFF7F1FC28B1FFE71699032081F8AB
:101BA000820010E014981699D1F88810401AB0F508
:101BB000FA7F07D3FFE716981399FFF7C9FC8DF852
:101BC0005F000EE0FFE706E016981399FFF7C0FCF0
:101BD0008DF85F0005E0169890F882008DF85F00A0
:101BE000FFE79DF85F0018B070BD00000000000026
:101BF000B0B590B094468E4604461898179816983B
:101C00001599149A0E948DF837E0CDF830C08DF800
:101C10002F308DF82E208DF82D108DF82C000E9879
:101C20009DF83710084490F8800000284DD1FFE758
:101C30009DF82F0090BBFFE79DF82E0040B1FFE715
:101C40000E989DF83710084490F88C0020B1FFE7FB
:101C50009DF82D0010B3FFE70E989DF8371000EBAC
:101C600081100C9A179B1899EC46CCF804100021AF
:101C7000CCF800100EF048F88DF80F009DF80F001A
:101C8000032805D0FFE79DF80F00042805D1FFE7E2
:101C90009DF80F008DF83F004BE1FFE79DF82E0007
:101CA00090B1FFE70E989DF83710084490F88C002B
:101CB00050B9FFE70E989DF837100144012081F8D4
:101CC0008C008DF82F00FFE7FFE70E989DF8371086
:101CD000084490F8800002280FD1FFE79DF82C00FF
:101CE00058B1FFE70E989DF837100144032081F8A2
:101CF000800001208DF82F00FFE70E989DF8371027
:101D0000084490F88000A8B9FFE79DF82D0088B13D
:101D1000FFE70E989DF837100144012081F88000FC
:101D20000E999DF837200A44002182F88C108DF816
:101D30002F00FFE70E989DF83710084490F88000B8
:101D4000022809D0FFE70E989DF83710084490F854
:101D50008000042813D1FFE70E989DF8371000EBA0
:101D600081100C9A179B1899EC46CCF804100021AE
:101D7000CCF800100DF0C8FF8DF83F00D9E000202E
:101D80008DF82800FF208DF8100017990E98D0F8D4
:101D90008400401A42F2C071C0F20901084409905F
:101DA0000E989DF83710084490F880000146029183
:101DB00040B1FFE7029801282BD0FFE702980328E3
:101DC00038D052E00E989DF83710084490F88C00F7
:101DD00068B1FFE701208DF828000C980068059095
:101DE0000020069007900C988068089010E047F655
:101DF000E120C4F2340005904FF4FA6006904FF4ED
:101E0000FA7007904AF61460C3F6C7600890FFE7BF
:101E10002FE001208DF828000C9800680590002024
:101E200006904FF49670079045F20460C3F60E607A
:101E300008901EE04CF6CD40C3F6CC7005904FF4F0
:101E400016700690079045F20460C3F60E60089085
:101E50009DF82F0040B1FFE70C9890ED000AFFF7C6
:101E60000BFB8DF81000FFE703E004208DF83F0026
:101E70005FE00E989DF8371000EB81100C9A179BCD
:101E80009DF82F10DDF860E0EC46CCF804E0CCF8CB
:101E9000001004A90DF038FF8DF80F009DF80F0019
:101EA000032805D0FFE79DF80F00042805D1FFE7C0
:101EB0009DF80F008DF83F003BE00E989DF837101D
:101EC000084490F8800001280DD1FFE79DF80F002D
:101ED000022808D1FFE70E989DF837100144022030
:101EE00081F8800020E00E989DF83710084490F8A3
:101EF0008000032817D1FFE79DF80F00022812D1B8
:101F0000FFE70E989DF8371000EB81101799FFF747
:101F1000F7FA40B1FFE70E989DF83710014404200E
:101F200081F88000FFE7FFE79DF80F008DF83F0084
:101F3000FFE79DF83F0010B0B0BD000000000000BA
:101F400080B58AB00890079106920898007F012812
:101F500005D0FFE70898007F022867D1FFE70898BF
:101F6000007E002862D1FFE70698089A9168126AFD
:101F7000801A88425AD3FFE7002030B9FFE707985C
:101F8000006817F031FC60B950E0079890ED000A46
:101F9000B7EEC00A51EC100B17F0F2FB002845D049
:101FA000FFE7002030B9FFE70798406817F01CFCF6
:101FB00058B93BE0079890ED010AB7EEC00A51EC22
:101FC000100B17F0DDFB88B3FFE7002030B9FFE707
:101FD0000798806817F008FC58B927E0079890ED3B
:101FE000020AB7EEC00A51EC100B17F0C9FBE8B1BA
:101FF000FFE7079890ED020AB5EE400AF1EE10FAFD
:1020000014DDFFE7002030B9FFE70798C06817F03C
:10201000EBFB78B90AE0079890ED030AB7EEC00A27
:1020200051EC100B17F0ACFB20B9FFE700208DF846
:10203000270066E0079890ED000A9FED341A30EE15
:10204000010ADFED330ACDED020A1AF0CFFEDDED15
:10205000020A8DED050A9DED050A089890ED091A12
:1020600030EE410A1AF0C2FE8DED040A9DED040A1D
:10207000B0EEC00A9FED271AB4EE410AF1EE10FA55
:1020800004DBFFE700208DF827003AE0089890ED88
:102090000A0A9DED041A30EE010A8DED030A0020B4
:1020A00040B9FFE7039817F09FFB0146002001901D
:1020B00069B920E09DED030AB7EEC00A51EC100BA0
:1020C00017F05EFB014600200190A1B1FFE70898E0
:1020D00090ED0C0A9DED031A30EE410AB0EEC00AF5
:1020E0009FED0D1A0020B4EE410AF1EE10FAB8BFD0
:1020F00001200190FFE7019800F001008DF8270012
:10210000FFE79DF827000AB080BD00BFDB0FC9BF05
:10211000DB0FC940D70F4940CDCC4C3D000000003B
:1021200081B00090009850B1FFE70099002008604E
:1021300000994860009988600099C860FFE701B085
:10214000704700000000000080B590B041F2B85028
:10215000C2F2004090F87A03012840F01481FFE7B2
:1021600041F2B850C2F200400F9000F5A2709FED0E
:10217000B50A8DED0D0ADFEDB40ACDED0E0A18F0AB
:102180009BFE9DED0D0ADDED0E0A0F9800F5907097
:1021900018F092FE0F9991ED510A9FEDAC1A20EEC6
:1021A000010ABDEEC00A10EE100AA1F8320191ED4D
:1021B000480A9FEDA71A20EE010ABDEEC00A10EEF4
:1021C000100AA1F80E01FFE741F2B850C2F2004038
:1021D000B0F9320110F5804F09DCFFE741F2B85148
:1021E000C2F200414FF44040A1F8320113E041F245
:1021F000B850C2F20040B0F93201B0F5804F09DBAF
:10220000FFE741F2B851C2F200414FF48040A1F81B
:102210003201FFE7FFE7FFE7FFE741F2B850C2F204
:102220000040B0F90E0110F5804F09DCFFE741F2E4
:10223000B851C2F200414FF44040A1F80E0113E042
:1022400041F2B850C2F20040B0F90E01B0F5804F33
:1022500009DBFFE741F2B851C2F200414FF4804080
:10226000A1F80E01FFE7FFE7FFE741F2B850C2F225
:1022700000400C9000F5807044F6B061C2F200415D
:10228000099100220B9200F00FFA0C9800F50D70E6
:102290009FED700A8DED060ADFED6F0ACDED070A9E
:1022A00018F00AFE9DED060ADDED070A0C9800F510
:1022B0000E7018F001FE9DED060ADDED070A0C9880
:1022C00000F5407018F0F8FD9DED060ADDED070AF7
:1022D0000C9800F5417018F0EFFD0B9A0C9890EDFA
:1022E0008E2A00F1C00144F65070C2F200400890FE
:1022F000DFED531ACDED0A1AB0EE610AF0EE610A75
:10230000B0EE611A00F07CFD0898DDED0A1A0B9A18
:102310000C9991ED8D2A8031B0EE610AF0EE610AE0
:10232000B0EE611A00F06CFD0998DDED0A1A0B9A07
:102330000C9991EDC10AB1EE402AB0EE610AF0EEBF
:10234000610AB0EE611A00F05BFD0998DDED0A1A32
:102350000B9A0C9991EDC00AB1EE402A4031B0EED3
:10236000610AF0EE610AB0EE611A00F049FD0C98C6
:10237000D0ED480A90ED510A90ED901AD0EDC31AB5
:102380000CF02EFD5AE041F2B851C2F20041029128
:1023900000220592A1F8322101F58070A1F80E21EA
:1023A00044F6B061C2F20041039100F07DF9029859
:1023B000059A00F1C00144F65070C2F2004001904D
:1023C0009FED1F2A8DED042AB0EE420AF0EE420A7C
:1023D000B0EE421AF0EE421A00F012FD0198029996
:1023E0009DED042A059A8031B0EE420AF0EE420AD1
:1023F000B0EE421AF0EE421A00F002FD0299039884
:102400009DED042A059AB0EE420AF0EE420AB0EEC3
:10241000421AF0EE421A00F0F3FC029903989DED87
:10242000042A059A4031B0EE420AF0EE420AB0EEBC
:10243000421AF0EE421A00F0E3FCFFE710B080BD54
:10244000000000009A9999C09A999940002050C5BF
:1024500000205045000020C2000020420000000083
:1024600080B582B000F04CFC41F2B850C2F200409E
:10247000019000F5DC7017F047F8019800F5217025
:1024800017F042F80199002081F87A03022281F8BE
:102490007923C1F8A00102B080BD00000000000057
:1024A00086B004908DED030AADF80A10002001906B
:1024B0000090049818B9FFE70020059090E0049878
:1024C0000078C00750B9FFE704990889488104994A
:1024D0000020C860049901200870FFE70499B1F951
:1024E0000800B1F90A10884210DAFFE70499B1F93F
:1024F0000800B1F90A10401ABDF80A10084400EEAD
:10250000100AB8EEC00A8DED010A18E00499B1F97D
:102510000800B1F90A10884210DDFFE70499B1F90B
:102520000800B1F90A10401ABDF80A10401A00EE6E
:10253000100AB8EEC00A8DED010AFFE7FFE7049923
:10254000B1F90800B1F90A10401A00EE100AB8EE0D
:10255000C00A8DED000A0499088948819DED010AA1
:10256000B0EEC00A9DED001AB0EEC11AB4EE410AF9
:10257000F1EE10FA18DDFFE79DED000ABDF80A0044
:1025800001EE100AB8EEC11A9DED032A21EE021ADF
:1025900080EE011A049890ED030A9FED132A01EED4
:1025A000020A80ED030A17E09DED010ABDF80A005A
:1025B00001EE100AB8EEC11A9DED032A21EE021AAF
:1025C00080EE011A049890ED030A9FED072A01EEB0
:1025D000020A80ED030AFFE70498C0680590FFE750
:1025E0009DED050A06B070470000B44300000000EE
:1025F00080B584B00390029101920198B0F5002F4C
:1026000001D0FFE74BE002988079039908770298A0
:102610000178407840EA0120039988820298817805
:10262000C07840EA012003994882029801794079F4
:1026300040EA01200399088203980078014600913E
:1026400040B1FFE70098012810D0FFE7009802286A
:1026500018D023E003980C30B7EE000A4FF4005175
:10266000FFF71EFF039880ED060A18E003980C3070
:10267000B3EE030A4FF40051FFF712FF039880ED09
:10268000060A0CE003980C309FED060A4FF4005147
:10269000FFF706FF039880ED060A00E0FFE704B0AD
:1026A00080BD00BF0000104280B586B00590049147
:1026B000ADF80E200598C07B8DF806000598C089FE
:1026C0008DF80700059890F833008DF808000598FC
:1026D000408E8DF80900059890F857008DF80A0093
:1026E0000598B0F856008DF80B00059890F87B001F
:1026F0008DF80C000598B0F87A008DF80D0004985C
:10270000059989880DF10602082317F005FBBDF82D
:102710000E0028B1FFE7BDF80E0018F0FDFBFFE743
:1027200006B080BD0000000080B544F66830C2F2FB
:10273000004002F021FC80BD80B544F6E030C2F2DA
:10274000004002F019FC80BD80B544F65840C2F24A
:10275000004002F011FC80BD80B544F6C050C2F2CA
:10276000004002F009FC80BD80B544F63860C2F23A
:10277000004002F001FC80BD80B544F6D040C2F2BA
:10278000004002F0F9FB80BD80B544F64850C2F22B
:10279000004002F0F1FB80BD83B002900298016816
:1027A00001201022C4F202029142009000F0A380A6
:1027B000FFE70298016801202822C4F20202914238
:1027C000009000F09880FFE7029801680120402205
:1027D000C4F202029142009000F08D80FFE702985F
:1027E000016801205822C4F202029142009000F0D8
:1027F0008280FFE70298016801207022C4F2020281
:102800009142009077D0FFE702980168012088226A
:10281000C4F20202914200906DD0FFE70298016875
:102820000120A022C4F202029142009063D0FFE78F
:10283000029801680120B822C4F20202914200907D
:1028400059D0FFE702980168012040F21042C4F21B
:102850000202914200904ED0FFE7029801680120E9
:1028600040F22842C4F202029142009043D0FFE7B6
:1028700002980168012040F24042C4F202029142F3
:10288000009038D0FFE702980168012040F25842DA
:10289000C4F20202914200902DD0FFE70298016835
:1028A000012040F27042C4F202029142009022D014
:1028B000FFE702980168012040F28842C4F2020258
:1028C0009142009017D0FFE702980168012040F282
:1028D000A042C4F20202914200900CD0FFE702989D
:1028E00000684FF64831CBF6FD710844B0FA80F02D
:1028F00040090090FFE70098C00740B3FFE7029847
:10290000007810384AF6AB21CAF6AA21A0FB0110C4
:1029100000090190019800F007014DF22830C0F63F
:102920000100405C0299C8650198042807D3FFE7BD
:1029300002990868042262F30900886506E002999A
:10294000086840F2FF3290438865FFE705E002998E
:10295000086820F0FF008865FFE70298806D03B0EB
:10296000704700000000000084B0039003980068E6
:10297000019003980168012045F20842C5F6020261
:10298000914200904ED0FFE703980168012045F284
:102990001C42C5F602029142009043D0FFE7039823
:1029A0000168012045F23042C5F6020291420090D2
:1029B00038D0FFE703980168012045F24442C5F68C
:1029C0000202914200902DD0FFE703980168012098
:1029D00045F25842C5F602029142009022D0FFE72C
:1029E00003980168012045F26C42C5F6020291424B
:1029F000009017D0FFE703980168012045F280425C
:102A0000C5F60202914200900CD0FFE703980068DF
:102A10004AF66C31CAF2FD710844B0FA80F0400900
:102A20000090FFE70098C00710B3FFE70398007815
:102A300008384CF6CD41CCF6CC41A0FB0110000982
:102A40000290029945F60000C5F6020000EB8100F5
:102A500003990866039945F68000C5F602004866AA
:102A6000029800F01F01012088400399886635E034
:102A70000398007810384AF6AB21CAF6AA21A0FBC9
:102A8000011000090290019840F2B841C4F202011D
:102A900088420CD8FFE7019840F21041C4F20201CD
:102AA000884204D3FFE7029808300290FFE70299BA
:102AB00040F60000C4F2020000EB810003990866B2
:102AC000039940F68000C4F202004866029800F0C4
:102AD0001F010120884003998866FFE704B0704712
:102AE00083B002900298007901900198002800F0CC
:102AF0008A80FFE70198082800F28580FFE70298A6
:102B00000168012045F20842C5F602029142009098
:102B10004ED0FFE702980168012045F21C42C5F63D
:102B200002029142009043D0FFE702980168012021
:102B300045F23042C5F602029142009038D0FFE7DC
:102B400002980168012045F24442C5F60202914212
:102B500000902DD0FFE702980168012045F258420D
:102B6000C5F602029142009022D0FFE70298016868
:102B7000012045F26C42C5F602029142009017D046
:102B8000FFE702980168012045F28042C5F6020283
:102B9000914200900CD0FFE7029800684AF66C3131
:102BA000CAF2FD710844B0FA80F040090090FFE7D6
:102BB0000098C00780B1FFE7019945F6FC00C5F613
:102BC000020000EB81000299C866029945F64010A8
:102BD000C5F6020008670FE0019940F6FC00C4F258
:102BE000020000EB81000299C866029940F640108D
:102BF000C4F202000867FFE70198411E01208840E7
:102C000002994867FFE703B070470000000000002A
:102C100085B0049000208DF80F000498806918BBDF
:102C2000FFE70498806A029003281BD80299DFE826
:102C300001F0020D0218049890F82F00C00720B18F
:102C4000FFE701208DF80F00FFE70CE00498C06A51
:102C5000B0F1C07F04D1FFE701208DF80F00FFE73E
:102C600001E000E0FFE747E004988069B0F5005F0D
:102C700026D1FFE70498806A019003281ED80199A5
:102C8000DFE801F00206021101208DF80F0016E0C6
:102C9000049890F82F00C00720B1FFE701208DF8BD
:102CA0000F00FFE70BE00498C06AB0F1C07F04D1C9
:102CB000FFE701208DF80F00FFE700E0FFE71AE0D3
:102CC0000498806A0090032804D3FFE70098032843
:102CD00004D00EE001208DF80F000BE0049890F86E
:102CE0002F00C00720B1FFE701208DF80F00FFE79C
:102CF00000E0FFE7FFE7FFE79DF80F0005B0704732
:102D000080B584B001208DF80F0000208DF80E00F2
:102D1000FFE79DF80E00092839DCFFE741F2B850C3
:102D2000C2F200400190B0F8C410B0F8C0209DF885
:102D30000F3044F65070C2F20040009000F02CF8C2
:102D4000019A0098B2F88410B2F880209DF80F30F4
:102D500000F022F80198818802889DF80F3044F62F
:102D6000B060C2F20040029000F016F8019A02989A
:102D7000B2F84410B2F840209DF80F3000F00CF883
:102D8000FFE79DF80E0001308DF80E00C1E704B09A
:102D900080BD00000000000080B586B00590ADF851
:102DA0001210ADF810208DF80F30BDF81200BDF8EC
:102DB00010100844ADF80400FF208DF807008DF8CE
:102DC00008008DF809008DF80A008DF80B008DF8C9
:102DD0000C008DF80D00FC208DF80E000598BDF854
:102DE00004100DF10702082316F096FF9DF80F005E
:102DF00018F092F8012006B080BD0000000000002D
:102E000080B59EB017AB0793034607981D931C919E
:102E100080ED040AC0ED030A80ED021AC0ED011A2C
:102E200080ED002A8DF85B201C98008801460891EF
:102E300060B1FFE70898B0F5807F00F01B81FFE7E5
:102E40000898B0F5007F00F0488167E11C98406861
:102E5000ADF846001C98C078002844D1FFE70798D9
:102E600090ED040AFAEE090AB2EE091A102017F0E2
:102E700063FC01460798ADF8501090ED030AFBEE95
:102E80000E0AB3EE0E1A0C20069017F055FC0799A7
:102E900002460698ADF84E2091ED020ADFEDA70A32
:102EA000CDED050A9FEDA61A17F046FCDDED050AEB
:102EB000079902460698ADF84C2091ED010AB1EE53
:102EC000041A17F039FC079902460698ADF84A2013
:102ED00091ED000AFAEE040AB2EE041A17F02CFC87
:102EE000ADF8480093E01C98C078012844D1FFE772
:102EF000079890ED040AFAEE090AB2EE091A1020BA
:102F000017F01AFC01460798ADF8501090ED030A2F
:102F1000FAEE040AB2EE041A0C20049017F00CFC2E
:102F2000079902460498ADF84E2091ED020ADFEDB4
:102F3000830ACDED030A9FED821A17F0FDFBDDED4C
:102F4000030A079902460498ADF84C2091ED010A56
:102F5000B1EE041A17F0F0FB079902460498ADF899
:102F60004A2091ED000AFBEE0C0AB3EE0C1A17F0A2
:102F7000E3FBADF8480049E01C98C078022844D132
:102F8000FFE7079890ED040AFAEE090AB2EE091A73
:102F9000102017F0D1FB01460798ADF8501090EDC6
:102FA000030ADFED640A9FED641A0C20029017F00B
:102FB000C3FB079902460298ADF84E2091ED020A34
:102FC000DFED5E0ACDED010A9FED5D1A17F0B4FB4F
:102FD000DDED010A079902460298ADF84C2091ED0B
:102FE000010AB1EE041A17F0A7FB079902460298EE
:102FF000ADF84A2091ED000ADFED520A9FED521A1A
:1030000017F09AFBADF84800FFE7FFE7FFE79DF8F0
:1030100051008DF853009DF850008DF85400BDF814
:103020004E0000098DF85500BDF84E109DF84D007A
:1030300040EA01108DF856009DF84C008DF85700BD
:10304000BDF84A0000098DF85800BDF84A109DF8F7
:10305000490040EA01108DF859009DF848008DF8AC
:103060005A001D98BDF846100DF15302082316F0C2
:1030700053FE53E01C98406800F58070ADF83200B4
:103080001BA80E901AA80D900E9800788DF83E009F
:103090000E9840788DF83F000E9880788DF84000AB
:1030A0000E98C0788DF841000D9800788DF8420098
:1030B0000D9840788DF843000D9880788DF8440085
:1030C0000D98C0788DF845001D98BDF832100DF1AF
:1030D0003E02082316F020FE20E01C98406800F510
:1030E0000070ADF826001AA80A900A9800788DF8AA
:1030F0002E000A9840788DF82F000A9880788DF875
:1031000030000A98C0788DF831001D98BDF826105F
:103110000DF12E02042316F0FFFDFFE79DF85B0082
:1031200028B1FFE79DF85B0017F0F6FEFFE71EB041
:1031300080BD00BF000034C2000034420000000027
:103140000000FA43000020C20000204200000000FE
:1031500080B588B00790069105920598B0F5002FCC
:1031600040F0B880FFE70698007800F00F0007995C
:1031700088810698007800090799C8810698B0F8F8
:103180000100000400BA079908610699C878097916
:10319000000140EA111007994861069801794079C9
:1031A00001F00F0140EA0120079988610798C07873
:1031B0000146049140B1FFE7049801282AD0FFE7B7
:1031C000049802284CD071E007980069BAEE090A09
:1031D000F2EE090A102118F0BBFC079880ED090AED
:1031E00007984069BBEE0E0AF3EE0E0A0C2103911C
:1031F00018F0AEFC0399079880ED0A0A07988069D9
:10320000BAEE040AF2EE040A18F0A2FC079880ED68
:103210000B0A4CE007980069BAEE090AF2EE090AB7
:10322000102118F095FC079880ED090A079840696D
:10323000BAEE040AF2EE040A0C21029118F088FC9E
:103240000299079880ED0A0A07988069BBEE0C0A7C
:10325000F3EE0C0A18F07CFC079880ED0B0A26E0D0
:1032600007980069BAEE090AF2EE090A102118F06F
:103270006FFC079880ED090A079840699FED160AD0
:10328000DFED160A0C21019118F062FC01990798F4
:1032900080ED0A0A079880699FED110ADFED110A97
:1032A00018F056FC079880ED0B0A00E0FFE706983F
:1032B000807900EE100AB8EE400A079880ED0E0AF9
:1032C0000698C07900EE100AB8EE400A079880ED23
:1032D0000F0AFFE708B080BD000034C2000034428E
:1032E000000020C20000204281B041F20400CEF272
:1032F000000000680090009842F61061C2F20041A0
:103300000968884208D2FFE742F61461C2F2004120
:10331000086801300860FFE7009842F61061C2F2C9
:103320000041086001B0704783B08DED020A41F2A0
:103330000400CEF200000068019002980090FFE7C0
:1033400041F20400CEF2000000680199401A00EE3C
:10335000100AB8EE400A9DED001A42F6F850C2F28B
:10336000004090ED002AB8EE422A21EE021AB4EE97
:10337000410AF1EE10FA01DAFFE7E1E703B0704726
:1033800080B584B0039041F20400CEF200000068E2
:103390000290029803990968401A00EE100AB8EEEC
:1033A000400A42F6F850C2F2004090ED001AB8EE22
:1033B000411A80EE010A8DED010A02980399086016
:1033C000FFF792FF9DED010A04B080BD00000000F0
:1033D00080B582B000F068F843F2C020C2F200402D
:1033E00090ED000AB8EE400A818801EE101AB8EE9E
:1033F000C11A9FED092A01EE020AC08801EE100AE7
:10340000B8EEC11A9FED052A01EE020A8DED010A00
:103410009DED010A02B080BD6F12833ABD3786353B
:1034200081B000904EF6FC51CEF20001086840F0E9
:103430008070086041F20401CEF2000100200860B3
:1034400041F20002CEF20002116841F00101116068
:10345000009944F24022C0F20F024A4342F6F8516A
:10346000C2F200410A600A6844F6D353C1F2620313
:10347000A2FB0332920942F6FC53C2F200431A60E7
:1034800009684DF68362C4F21B32A1FB0221890C4C
:1034900042F60062C2F20042116042F61461C2F2CA
:1034A0000041086001B07047B0B586B041F2040039
:1034B000CEF2000000680590FFF716FF42F6146098
:1034C000C2F2004001680598002302934FF0FF3CD0
:1034D0001A46E1FB0C0242F60861C2F2004100917B
:1034E0004A6008600868496842F6F854C2F200442D
:1034F0002268FCF707FF029B02468C46009942F6C1
:103500002060C2F20040C0F804C00260D1F800C0E0
:103510004968D0F800E042682468AEFB04E502FB8D
:103520000452BCEB0E0C61EB020242F62861C2F2BF
:1035300000410391C1F800C04A60006843F2C02214
:10354000C2F20042049210600868496842F6FC52D8
:10355000C2F2004201921268FCF7D4FEDDF804C00A
:10356000029B049A01460398918001684068928802
:10357000DCF800C002FB0CF28A1A60F1000042F68F
:103580003061C2F200410A6048600868496842F64A
:103590000062C2F200421268FCF7B4FE0499C880CF
:1035A00006B0B0BD00000000704700000000000041
:1035B00083B0029001910092009890ED004A90ED46
:1035C000012A90ED025A90ED036AB6EE001AB0EEB1
:1035D000417A05EE457A06EE467A029824EE060A0E
:1035E00002EE050AD0ED000AD0ED011A90ED023A84
:1035F00020EE210A07EE200A22EE062A04EE452AD2
:1036000002EE030A30EE000A019880ED000A0098ED
:1036100090ED002A90ED016A90ED024A90ED035A78
:1036200026EE047A02EE457A0298B0EE410A06EEE2
:10363000460A05EE450AD0ED000AD0ED011A90EDDC
:10364000023A20EE210A07EE200A22EE062A04EEB4
:10365000052A02EE030A30EE000A019880ED010A05
:10366000009890ED002A90ED014A90ED023A90ED1D
:10367000030A22EE035A04EE005A029823EE000ACF
:1036800002EE440A90ED006A90ED017A90ED022A74
:1036900020EE070A05EE060A04EE441A03EE431A6A
:1036A00001EE020A30EE000A019880ED020A03B032
:1036B000704700000000000081B0EFF3108072B688
:1036C0000090FFE7FEE7000080B58AB0002002907E
:1036D000039002210491012105910690079044F680
:1036E000B060C2F2004002A903F0EEFA18B1FFE7A1
:1036F000FFF7E2FFFFE768460023036044F6B0608F
:10370000C2F200400222114603F06AFB18B1FFE743
:10371000FFF7D2FFFFE744F6B060C2F2004001219C
:10372000002203F0E1F918B1FFE7FFF7C5FFFFE75B
:1037300044F6B060C2F2004004F02AFC18B1FFE782
:10374000FFF7BAFFFFE70AB080BD000000000000ED
:1037500080B544F6B060C2F2004003F001FD80BDC8
:1037600080B58AB0002002900121039102210491CA
:1037700005910690079044F65070C2F2004002A9ED
:1037800003F0A2FA18B1FFE7FFF796FFFFE76846DC
:103790000023036044F65070C2F20040022211463A
:1037A00003F01EFB18B1FFE7FFF786FFFFE744F6C3
:1037B0005070C2F200401021002203F095F918B1B8
:1037C000FFE7FFF779FFFFE744F65070C2F20040D1
:1037D00004F0DEFB18B1FFE7FFF76EFFFFE70AB06A
:1037E00080BD00000000000080B544F65070C2F2B9
:1037F000004003F0B5FC80BD80B58AB00020029087
:10380000022103910491012105910690079044F64D
:10381000F070C2F2004002A903F056FA18B1FFE7B7
:10382000FFF74AFFFFE768460023036044F6F070A5
:10383000C2F200400222114603F0D2FA18B1FFE7AB
:10384000FFF73AFFFFE744F6F070C2F200400121B3
:10385000002203F049F918B1FFE7FFF72DFFFFE75A
:1038600044F6F070C2F2004004F092FB18B1FFE79A
:10387000FFF722FFFFE70AB080BD00000000000054
:1038800080B544F6F070C2F2004003F069FC80BDE0
:1038900084B002900298406B009002980068D0F8C3
:1038A00084004FF6FC718843009940EA8100029938
:1038B0000968C1F8840002980068D0F8840020F4F8
:1038C0007F00029A1168926B40EA0240C1F88400BE
:1038D0000298816B00980844009002980068D0F824
:1038E00088006FF38F00009940EA8100029909680F
:1038F000C1F8880002980068D0F8880020F4FE0023
:10390000029A1168D26B40EA0240C1F8880002981E
:10391000C16B009800EB4100009002980068D0F85D
:10392000A0006FF38F00009940EA810002990968B6
:10393000C1F8A00002980068D0F8A00020F4FE00B2
:10394000029A1168126C40EA0240C1F8A000029984
:10395000086C496C009A00FB0120009002980068F6
:10396000D0F8B0006FF38F00009940EA810002990F
:103970000968C1F8B00002980068D0F8B00020F4DF
:10398000FE00029A1168926C40EA0240C1F8B00051
:103990000299886CC96C009A00FB01200090029883
:1039A0000068D0F8AC006FF38F00009940EA810006
:1039B00002990968C1F8AC000299086D496D009A36
:1039C00000FB0120009002980068D0F8F0006FF32F
:1039D0008F00009940EA810002990968C1F8F0005F
:1039E00002980068D0F8F00020F47C10029A116868
:1039F000926D40EA0240C1F8F0000298816D009893
:103A000000EB4100009002980068D0F8C0006FF30E
:103A10008F00009940EA810002990968C1F8C0004E
:103A200002980068D0F8C00020F47C10029A116857
:103A3000D26D40EA0240C1F8C00002980068D0F898
:103A4000C00020F07C50029A1168126E40EA0260B9
:103A5000C1F8C00002994A6B4AF60040C4F2000067
:103A600000EB8200C86602998A6BC86E00EB820088
:103A700008670299CA6B086F00EBC2004867029999
:103A80000A6C4B6C486F5A4300EB820088670299BE
:103A90008A6CCB6C886F5A4300EB8200C86702992E
:103AA0000A6D4B6DC86F5A4300EB8200C1F880006D
:103AB00002998A6DD1F8800000EBC200C1F8840041
:103AC0000299CA6D8B6ED1F884005A4300EB8200D4
:103AD000C1F8880002990A6E8B6ED1F888005A43AB
:103AE00000EB8200C1F890000298D0F890004DF2EF
:103AF000FD31C4F2000188420FD3FFE70299D1F8EB
:103B00009C0040F02000C1F89C000299032081F83D
:103B1000980001208DF80F0017E00298C06E019008
:103B2000FFE701980299D1F89010884208D2FFE788
:103B3000019900200860FFE7019804300190F0E748
:103B4000FFE700208DF80F00FFE79DF80F0004B09D
:103B5000704700000000000088B0079006910592B1
:103B600004930698406848B9FFE7069801688268A0
:103B70000069104340EA8140039009E0069801681B
:103B8000826800691043084340F080400390FFE7DB
:103B90000698D0F820C0C16842698369C06940EACC
:103BA0000C6018431043084302900798826ED0F8C7
:103BB00084000499514300EB81000190039801991E
:103BC00008600198043001900298019908600198FA
:103BD0000430019000200090FFE700980699CA8900
:103BE0004DF21831C0F60101895C88420DD2FFE721
:103BF0000598009940580199086001980430019097
:103C0000FFE7009804300090E7E708B07047000035
:103C100082B08DED010ACDED000A9DED010AB5EEF1
:103C2000400AF1EE10FA4BDDFFE79DED000AB5EE1C
:103C3000400AF1EE10FA43DAFFE79DED011A9FED1D
:103C4000560A30EE410A9DED001A30EE010A42F6A6
:103C50003C61C2F2004181ED000A9DED000A9DED3C
:103C6000011A30EE410A42F64060C2F2004080ED97
:103C7000000A91ED000A90ED001AB1EE411AB4EE7F
:103C8000410AF1EE10FA0DDAFFE742F63C60C2F2AB
:103C9000004090ED000A42F64460C2F2004080ED20
:103CA000000A0CE042F64060C2F2004090ED000ACB
:103CB00042F64460C2F2004080ED000AFFE760E097
:103CC0009DED010AB5EE400AF1EE10FA4BDAFFE77E
:103CD0009DED000AB5EE400AF1EE10FA43DDFFE774
:103CE0009DED011A9FED2B0A30EE410A9DED001A61
:103CF00030EE010A42F63C61C2F2004181ED000A59
:103D00009DED000A9DED011A30EE410A42F6406039
:103D1000C2F2004080ED000A91ED000AB1EE400AC7
:103D200090ED001AB4EE410AF1EE10FA0DDAFFE759
:103D300042F63C60C2F2004090ED000A42F6446058
:103D4000C2F2004080ED000A0CE042F64060C2F290
:103D5000004090ED000A42F64460C2F2004080ED5F
:103D6000000AFFE70CE09DED000A9DED011A30EE20
:103D7000410A42F64460C2F2004080ED000AFFE7CB
:103D8000FFE742F64460C2F2004090ED000A02B044
:103D9000704700BFDB0FC9C0DB0FC9400000000047
:103DA00084B0039002918DED010ACDED000A42F638
:103DB000E861C2F2004100200880FFE742F6E860B7
:103DC000C2F20040008803285BDCFFE742F6EA61AC
:103DD000C2F2004100200880FFE742F6EA60C2F22A
:103DE00000400088092843DCFFE7029842F6E861BA
:103DF000C2F200410A8842F6EA61C2F20041098833
:103E000002EB820201EB420303EB430300EBC3002E
:103E10009DED013A90ED000A90ED012A90ED024AE5
:103E200090ED031A02EE030A9DED002A04EE020A49
:103E300023EE034A01EE040A90ED041A21EE031A60
:103E400001EE020A90ED051A22EE022A01EE020AA4
:103E5000039800EBC20000EB810080ED000AFFE751
:103E600042F6EA61C2F20041088801300880B4E7F6
:103E7000FFE742F6E861C2F200410888013008809D
:103E80009CE704B07047000084B002900191ADF847
:103E90000220029828B9FFE74FF6FF70ADF80E0038
:103EA00021E0FFE70198411E0191B8B1FFE70298B8
:103EB000411C029100788DF80100BDF802109DF8B8
:103EC00001004840C2B24DF6E230C0F6010030F8C1
:103ED000120080EA1120ADF80200E3E7BDF802000D
:103EE000ADF80E00FFE7BDF80E0004B0704700000B
:103EF00080B584B04EF60000C1F6F1700068039002
:103F00004EF60400C1F6F170006802904EF608000B
:103F1000C1F6F1700068019001990398084403907C
:103F2000039888B1FFE7039842F60831C2F20041D6
:103F30000091023108220AF05BFE009902981231CA
:103F400004220AF055FEFFE704B080BD0000000027
:103F500080B58AB0089004F073FA0490089828B9E4
:103F6000FFE701208DF8270000F0AABC089890F820
:103F7000350002280ED0FFE7089980204865FFE74A
:103F80000899002081F83400FFE701208DF8270010
:103F900000F096BC0898016801201022C4F20202C9
:103FA0009142039000F0A380FFE708980168012088
:103FB0002822C4F202029142039000F09880FFE7A9
:103FC0000898016801204022C4F202029142039045
:103FD00000F08D80FFE70898016801205822C4F2A4
:103FE00002029142039000F08280FFE70898016886
:103FF00001207022C4F202029142039077D0FFE7C1
:104000000898016801208822C4F2020291420390BC
:104010006DD0FFE7089801680120A022C4F20202D7
:104020009142039063D0FFE7089801680120B8220D
:10403000C4F202029142039059D0FFE70898016848
:10404000012040F21042C4F20202914203904ED08D
:10405000FFE708980168012040F22842C4F20202FA
:104060009142039043D0FFE708980168012040F295
:104070004042C4F202029142039038D0FFE7089810
:104080000168012040F25842C4F2020291420390BA
:104090002DD0FFE708980168012040F27042C4F279
:1040A00002029142039022D0FFE7089801680120A4
:1040B00040F28842C4F202029142039017D0FFE717
:1040C00008980168012040F2A042C4F20202914225
:1040D00003900CD0FFE7089800684FF64831CBF604
:1040E000FD710844B0FA80F040090390FFE703989F
:1040F000C00780B1FFE708980168086820F01E003B
:10410000086008980168486920F0800048610898B4
:104110000068059009E008980168086820F00E0022
:104120000860089800680590FFE70898016801207A
:104130001022C4F202029142029000F00381FFE7D4
:104140000898016801202822C4F2020291420290DC
:1041500000F0F880FFE70898016801204022C4F2CF
:1041600002029142029000F0ED80FFE7089801689A
:1041700001205822C4F202029142029000F0E28033
:10418000FFE70898016801207022C4F20202914200
:10419000029000F0D780FFE708980168012088228C
:1041A000C4F202029142029000F0CC80FFE708982E
:1041B00001680120A022C4F202029142029000F0A4
:1041C000C180FFE7089801680120B822C4F202020A
:1041D0009142029000F0B680FFE708980168012044
:1041E00040F21042C4F202029142029000F0AA8012
:1041F000FFE708980168012040F22842C4F2020259
:104200009142029000F09E80FFE70898016801202B
:1042100040F24042C4F202029142029000F09280C9
:10422000FFE708980168012040F25842C4F20202F8
:104230009142029000F08680FFE708980168012013
:1042400040F27042C4F20202914202907AD0FFE73B
:1042500008980168012040F28842C4F202029142AB
:1042600002906FD0FFE708980168012040F2A04259
:10427000C4F202029142029064D0FFE708980168FC
:10428000012040F2B842C4F202029142029059D099
:10429000FFE708980168012045F20842C5F60202CE
:1042A000914202904ED0FFE708980168012045F244
:1042B0001C42C5F602029142029043D0FFE70898E3
:1042C0000168012045F23042C5F602029142029097
:1042D00038D0FFE708980168012045F24442C5F64E
:1042E0000202914202902DD0FFE708980168012058
:1042F00045F25842C5F602029142029022D0FFE7F1
:1043000008980168012045F26C42C5F6020291420C
:10431000029017D0FFE708980168012045F280421B
:10432000C5F60202914202900CD0FFE7089800689F
:104330004AF66C31CAF2FD710844B0FA80F04009C7
:104340000290FFE70298C00738B1FFE70898016EB6
:10435000086820F480700860FFE708980068102162
:10436000C4F20201884200F08180FFE708980068EB
:104370002821C4F20201884278D0FFE7089800683B
:104380004021C4F20201884270D0FFE7089800681B
:104390005821C4F20201884268D0FFE708980068FB
:1043A0007021C4F20201884260D0FFE708980068DB
:1043B0008821C4F20201884258D0FFE708980068BB
:1043C000A021C4F20201884250D0FFE7089800689B
:1043D000B821C4F20201884248D0FFE7089800687B
:1043E00040F21041C4F2020188423FD0FFE7089832
:1043F000006840F22841C4F20201884236D0FFE74B
:104400000898006840F24041C4F2020188422DD071
:10441000FFE70898006840F25841C4F20201884260
:1044200024D0FFE70898006840F27041C4F202010E
:1044300088421BD0FFE70898006840F28841C4F228
:104440000201884212D0FFE70898006840F2A041BC
:10445000C4F20201884209D0FFE70898006840F2E0
:10446000B841C4F20201884207D1FFE70898016809
:10447000086820F00100086006E0089801680868F4
:1044800020F001000860FFE7FFE705980068C0071B
:10449000C8B1FFE703F0D4FF0499401A062811D3EE
:1044A000FFE70899202048650899032081F8350026
:1044B000FFE70899002081F83400FFE701208DF81C
:1044C0002700FDE1E1E70898016801201022C4F20D
:1044D00002029142019000F0A380FFE70898016872
:1044E00001202822C4F202029142019000F098803B
:1044F000FFE70898016801204022C4F202029142BD
:10450000019000F08D80FFE7089801680120582293
:10451000C4F202029142019000F08280FFE7089805
:10452000016801207022C4F202029142019077D00A
:10453000FFE70898016801208822C4F20202914234
:1045400001906DD0FFE7089801680120A022C4F215
:1045500002029142019063D0FFE7089801680120B0
:10456000B822C4F202029142019059D0FFE70898A4
:104570000168012040F21042C4F20202914201900F
:104580004ED0FFE708980168012040F22842C4F2AB
:1045900002029142019043D0FFE708980168012090
:1045A00040F24042C4F202029142019038D0FFE74B
:1045B00008980168012040F25842C4F20202914278
:1045C00001902DD0FFE708980168012040F2704269
:1045D000C4F202029142019022D0FFE708980168DC
:1045E000012040F28842C4F202029142019017D0A9
:1045F000FFE708980168012040F2A042C4F20202DD
:10460000914201900CD0FFE7089800684FF64831BE
:10461000CBF6FD710844B0FA80F040090190FFE745
:104620000198C00760B1FFE70898806D079008986F
:10463000C06D00F01F013F208840079988600BE0A3
:104640000898806D06900898C06D00F01F01012049
:10465000884006994860FFE7089801680120102209
:10466000C4F202029142009000F00381FFE7089833
:10467000016801202822C4F202029142009000F059
:10468000F880FFE70898016801204022C4F2020286
:104690009142009000F0ED80FFE70898016801204A
:1046A0005822C4F202029142009000F0E280FFE73B
:1046B0000898016801207022C4F202029142009021
:1046C00000F0D780FFE70898016801208822C4F233
:1046D00002029142009000F0CC80FFE70898016848
:1046E0000120A022C4F202029142009000F0C18099
:1046F000FFE7089801680120B822C4F20202914243
:10470000009000F0B680FFE708980168012040F2B1
:104710001042C4F202029142009000F0AA80FFE72A
:1047200008980168012040F22842C4F20202914236
:10473000009000F09E80FFE708980168012040F299
:104740004042C4F202029142009000F09280FFE7E2
:1047500008980168012040F25842C4F202029142D6
:10476000009000F08680FFE708980168012040F281
:104770007042C4F20202914200907AD0FFE708989A
:104780000168012040F28842C4F202029142009086
:104790006FD0FFE708980168012040F2A042C4F200
:1047A00002029142009064D0FFE70898016801205E
:1047B00040F2B842C4F202029142009059D0FFE7A1
:1047C00008980168012045F20842C5F602029142AC
:1047D00000904ED0FFE708980168012045F21C4286
:1047E000C5F602029142009043D0FFE708980168A5
:1047F000012045F23042C5F602029142009038D0C5
:10480000FFE708980168012045F24442C5F602021C
:10481000914200902DD0FFE708980168012045F2F1
:104820005842C5F602029142009022D0FFE7089854
:104830000168012045F26C42C5F6020291420090E7
:1048400017D0FFE708980168012045F28042C5F6BD
:104850000202914200900CD0FFE7089800684AF6E7
:104860006C31CAF2FD710844B0FA80F04009009042
:10487000FFE70098C007A0B1FFE70898416E806E7F
:1048800048600898C06E58B1FFE70898C16E086884
:1048900020F4807008600898016F406F4860FFE75F
:1048A000FFE70899012081F83500FFE7089900200B
:1048B00081F83400FFE7FFE700208DF82700FFE7CD
:1048C0009DF827000AB080BD80B586B0049004989A
:1048D00020B9FFE701208DF8170046E3049890F80F
:1048E0003500022807D0FFE70499802048650120A1
:1048F0008DF8170039E30498016801201022C4F2F2
:1049000002029142029000F0A380FFE70498016840
:1049100001202822C4F202029142029000F0988005
:10492000FFE70498016801204022C4F2020291428C
:10493000029000F08D80FFE7049801680120582262
:10494000C4F202029142029000F08280FFE70498D4
:10495000016801207022C4F202029142029077D0D5
:10496000FFE70498016801208822C4F20202914204
:1049700002906DD0FFE7049801680120A022C4F2E4
:1049800002029142029063D0FFE70498016801207F
:10499000B822C4F202029142029059D0FFE7049873
:1049A0000168012040F21042C4F2020291420290DA
:1049B0004ED0FFE704980168012040F22842C4F27B
:1049C00002029142029043D0FFE70498016801205F
:1049D00040F24042C4F202029142029038D0FFE716
:1049E00004980168012040F25842C4F20202914248
:1049F00002902DD0FFE704980168012040F2704238
:104A0000C4F202029142029022D0FFE704980168AA
:104A1000012040F28842C4F202029142029017D073
:104A2000FFE704980168012040F2A042C4F20202AC
:104A3000914202900CD0FFE7049800684FF648318D
:104A4000CBF6FD710844B0FA80F040090290FFE710
:104A50000298C007002800F09D80FFE70499042019
:104A600081F83500049800681021C4F202018842E0
:104A700000F08180FFE7049800682821C4F2020159
:104A8000884278D0FFE7049800684021C4F2020110
:104A9000884270D0FFE7049800685821C4F20201F0
:104AA000884268D0FFE7049800687021C4F20201D0
:104AB000884260D0FFE7049800688821C4F20201B0
:104AC000884258D0FFE704980068A021C4F2020190
:104AD000884250D0FFE704980068B821C4F2020170
:104AE000884248D0FFE70498006840F21041C4F2C1
:104AF000020188423FD0FFE70498006840F2284155
:104B0000C4F20201884236D0FFE70498006840F200
:104B10004041C4F2020188422DD0FFE704980068AA
:104B200040F25841C4F20201884224D0FFE70498C1
:104B3000006840F27041C4F2020188421BD0FFE7D6
:104B40000498006840F28841C4F20201884212D001
:104B5000FFE70498006840F2A041C4F202018842D5
:104B600009D0FFE70498006840F2B841C4F202019E
:104B7000884207D1FFE704980168086820F0010027
:104B8000086006E004980168086820F001000860E9
:104B9000FFE7E5E104980168086820F00E0008606E
:104BA000049800681021C4F20201884200F081805C
:104BB000FFE7049800682821C4F20201884278D0F7
:104BC000FFE7049800684021C4F20201884270D0D7
:104BD000FFE7049800685821C4F20201884268D0B7
:104BE000FFE7049800687021C4F20201884260D097
:104BF000FFE7049800688821C4F20201884258D077
:104C0000FFE704980068A021C4F20201884250D056
:104C1000FFE704980068B821C4F20201884248D036
:104C2000FFE70498006840F21041C4F20201884294
:104C30003FD0FFE70498006840F22841C4F2020127
:104C4000884236D0FFE70498006840F24041C4F241
:104C5000020188422DD0FFE70498006840F25841D5
:104C6000C4F20201884224D0FFE70498006840F2B1
:104C70007041C4F2020188421BD0FFE7049800682B
:104C800040F28841C4F20201884212D0FFE7049842
:104C9000006840F2A041C4F20201884209D0FFE757
:104CA0000498006840F2B841C4F20201884207D17A
:104CB000FFE704980168086820F00100086006E03A
:104CC00004980168086820F001000860FFE7049874
:104CD000016801201022C4F202029142019000F00A
:104CE0000381FFE70498016801202822C4F2020230
:104CF0009142019000F0F880FFE7049801680120DC
:104D00004022C4F202029142019000F0ED80FFE7E0
:104D10000498016801205822C4F2020291420190D5
:104D200000F0E280FFE70498016801207022C4F2DD
:104D300002029142019000F0D780FFE704980168D9
:104D400001208822C4F202029142019000F0CC803E
:104D5000FFE7049801680120A022C4F202029142F8
:104D6000019000F0C180FFE7049801680120B8229B
:104D7000C4F202029142019000F0B680FFE704986D
:104D80000168012040F21042C4F2020291420190F7
:104D900000F0AA80FFE704980168012040F2284251
:104DA000C4F202029142019000F09E80FFE7049855
:104DB0000168012040F24042C4F202029142019097
:104DC00000F09280FFE704980168012040F2584209
:104DD000C4F202029142019000F08680FFE704983D
:104DE0000168012040F27042C4F202029142019037
:104DF0007AD0FFE704980168012040F28842C4F2AB
:104E00000202914201906FD0FFE7049801680120EF
:104E100040F2A042C4F202029142019064D0FFE746
:104E200004980168012040F2B842C4F202029142A3
:104E3000019059D0FFE704980168012045F208422B
:104E4000C5F60202914201904ED0FFE70498016836
:104E5000012045F21C42C5F602029142019043D066
:104E6000FFE704980168012045F23042C5F60202CE
:104E70009142019038D0FFE704980168012045F283
:104E80004442C5F60202914201902DD0FFE70498FA
:104E90000168012045F25842C5F602029142019094
:104EA00022D0FFE704980168012045F26C42C5F664
:104EB00002029142019017D0FFE704980168012097
:104EC00045F28042C5F60202914201900CD0FFE704
:104ED000049800684AF66C31CAF2FD710844B0FAD1
:104EE00080F040090190FFE70198C00728B3FFE771
:104EF0000498016E086820F4807008600498806D42
:104F000003900498C06D00F01F01012088400399B0
:104F100048600498416E806E48600498C06E58B135
:104F2000FFE70498C16E086820F480700860049858
:104F3000016F406F4860FFE7FFE70499012081F8A7
:104F40003500FFE70499002081F83400FFE704985A
:104F5000006D20B1FFE70498016D8847FFE7FFE788
:104F6000FFE700208DF81700FFE79DF8170006B057
:104F700080BD00000000000080B590B00F900020C0
:104F80000B9042F64C20C2F20040006848F2B51186
:104F9000C1F64E31A0FB0110800A0A900F98806D77
:104FA00009900F98806D0890099800680E900898F5
:104FB00000680D900F98016801201022C4F20202CF
:104FC0009142079000F0A380FFE70F98016801204D
:104FD0002822C4F202029142079000F09880FFE775
:104FE0000F98016801204022C4F20202914207900A
:104FF00000F08D80FFE70F98016801205822C4F26D
:1050000002029142079000F08280FFE70F9801684A
:1050100001207022C4F202029142079077D0FFE78C
:105020000F98016801208822C4F202029142079081
:105030006DD0FFE70F9801680120A022C4F20202A0
:105040009142079063D0FFE70F9801680120B822D2
:10505000C4F202029142079059D0FFE70F9801680D
:10506000012040F21042C4F20202914207904ED059
:10507000FFE70F980168012040F22842C4F20202C3
:105080009142079043D0FFE70F980168012040F25A
:105090004042C4F202029142079038D0FFE70F98D5
:1050A0000168012040F25842C4F202029142079086
:1050B0002DD0FFE70F980168012040F27042C4F242
:1050C00002029142079022D0FFE70F980168012069
:1050D00040F28842C4F202029142079017D0FFE7E3
:1050E0000F980168012040F2A042C4F202029142EE
:1050F00007900CD0FFE70F9800684FF64831CBF6C9
:10510000FD710844B0FA80F040090790FFE7079866
:10511000C007002800F01385FFE70E980F99C96DAE
:1051200001F01F01C8400007002840F1B080FFE7F0
:105130000F9800681021C4F20201884200F08180BB
:10514000FFE70F9800682821C4F20201884278D056
:10515000FFE70F9800684021C4F20201884270D036
:10516000FFE70F9800685821C4F20201884268D016
:10517000FFE70F9800687021C4F20201884260D0F6
:10518000FFE70F9800688821C4F20201884258D0D6
:10519000FFE70F980068A021C4F20201884250D0B6
:1051A000FFE70F980068B821C4F20201884248D096
:1051B000FFE70F98006840F21041C4F202018842F4
:1051C0003FD0FFE70F98006840F22841C4F2020187
:1051D000884236D0FFE70F98006840F24041C4F2A1
:1051E000020188422DD0FFE70F98006840F2584135
:1051F000C4F20201884224D0FFE70F98006840F211
:105200007041C4F2020188421BD0FFE70F9800688A
:1052100040F28841C4F20201884212D0FFE70F98A1
:10522000006840F2A041C4F20201884209D0FFE7C1
:105230000F98006840F2B841C4F20201884207D1D9
:10524000FFE70F980068006800F00400069006E091
:105250000F980068006800F008000690FFE70698C5
:10526000A0B1FFE70F980168086820F0040008600B
:105270000F98C06D00F01F010820884009998860D0
:105280000F99486D40F001004865FFE7FFE70E9871
:105290000F99C96D01F01F01C840C007002800F038
:1052A000A980FFE70F9800681021C4F2020188422C
:1052B00000F08180FFE70F9800682821C4F2020106
:1052C000884278D0FFE70F9800684021C4F20201BD
:1052D000884270D0FFE70F9800685821C4F202019D
:1052E000884268D0FFE70F9800687021C4F202017D
:1052F000884260D0FFE70F9800688821C4F202015D
:10530000884258D0FFE70F980068A021C4F202013C
:10531000884250D0FFE70F980068B821C4F202011C
:10532000884248D0FFE70F98006840F21041C4F26D
:10533000020188423FD0FFE70F98006840F2284101
:10534000C4F20201884236D0FFE70F98006840F2AD
:105350004041C4F2020188422DD0FFE70F98006857
:1053600040F25841C4F20201884224D0FFE70F986E
:10537000006840F27041C4F2020188421BD0FFE78E
:105380000F98006840F28841C4F20201884212D0AE
:10539000FFE70F98006840F2A041C4F20201884282
:1053A00009D0FFE70F98006840F2B841C4F202014B
:1053B000884207D1FFE70F980068406900F080003D
:1053C000059005E00F980068006800200590FFE751
:1053D000059870B1FFE70F98C06D00F01F01012024
:1053E0008840099988600F99486D40F0020048652F
:1053F000FFE7FFE70E980F99C96D01F01F01C84044
:105400004007002840F1A980FFE70F9800681021AD
:10541000C4F20201884200F08180FFE70F98006823
:105420002821C4F20201884278D0FFE70F98006873
:105430004021C4F20201884270D0FFE70F98006853
:105440005821C4F20201884268D0FFE70F98006833
:105450007021C4F20201884260D0FFE70F98006813
:105460008821C4F20201884258D0FFE70F980068F3
:10547000A021C4F20201884250D0FFE70F980068D3
:10548000B821C4F20201884248D0FFE70F980068B3
:1054900040F21041C4F2020188423FD0FFE70F986A
:1054A000006840F22841C4F20201884236D0FFE78A
:1054B0000F98006840F24041C4F2020188422DD0AA
:1054C000FFE70F98006840F25841C4F20201884299
:1054D00024D0FFE70F98006840F27041C4F2020147
:1054E00088421BD0FFE70F98006840F28841C4F261
:1054F0000201884212D0FFE70F98006840F2A041F5
:10550000C4F20201884209D0FFE70F98006840F218
:10551000B841C4F20201884207D1FFE70F98006842
:10552000006800F00200049005E00F980068006831
:1055300000200490FFE7049870B1FFE70F98C06D5A
:1055400000F01F0104208840099988600F99486D78
:1055500040F004004865FFE7FFE70E980F99C96D1A
:1055600001F01F01C840C006002840F1DE80FFE7BF
:105570000F9800681021C4F20201884200F0818077
:10558000FFE70F9800682821C4F20201884278D012
:10559000FFE70F9800684021C4F20201884270D0F2
:1055A000FFE70F9800685821C4F20201884268D0D2
:1055B000FFE70F9800687021C4F20201884260D0B2
:1055C000FFE70F9800688821C4F20201884258D092
:1055D000FFE70F980068A021C4F20201884250D072
:1055E000FFE70F980068B821C4F20201884248D052
:1055F000FFE70F98006840F21041C4F202018842B0
:105600003FD0FFE70F98006840F22841C4F2020142
:10561000884236D0FFE70F98006840F24041C4F25C
:10562000020188422DD0FFE70F98006840F25841F0
:10563000C4F20201884224D0FFE70F98006840F2CC
:105640007041C4F2020188421BD0FFE70F98006846
:1056500040F28841C4F20201884212D0FFE70F985D
:10566000006840F2A041C4F20201884209D0FFE77D
:105670000F98006840F2B841C4F20201884207D195
:10568000FFE70F980068006800F00800039006E04C
:105690000F980068006800F004000390FFE703988B
:1056A000002841D0FFE70F98C06D00F01F011020C7
:1056B0008840099988600F980068006840030028B6
:1056C0001AD5FFE70F98006800680003002809D486
:1056D000FFE70F98006C20B1FFE70F98016C884737
:1056E000FFE708E00F98806C20B1FFE70F98816C0E
:1056F0008847FFE7FFE716E00F9800680068C005DD
:10570000002807D4FFE70F980168086820F0080018
:105710000860FFE70F98006C20B1FFE70F98016C5D
:105720008847FFE7FFE7FFE7FFE70E980F99C96D8E
:1057300001F01F01C8408006002840F12681FFE7E4
:105740000F9800681021C4F20201884200F08180A5
:10575000FFE70F9800682821C4F20201884278D040
:10576000FFE70F9800684021C4F20201884270D020
:10577000FFE70F9800685821C4F20201884268D000
:10578000FFE70F9800687021C4F20201884260D0E0
:10579000FFE70F9800688821C4F20201884258D0C0
:1057A000FFE70F980068A021C4F20201884250D0A0
:1057B000FFE70F980068B821C4F20201884248D080
:1057C000FFE70F98006840F21041C4F202018842DE
:1057D0003FD0FFE70F98006840F22841C4F2020171
:1057E000884236D0FFE70F98006840F24041C4F28B
:1057F000020188422DD0FFE70F98006840F258411F
:10580000C4F20201884224D0FFE70F98006840F2FA
:105810007041C4F2020188421BD0FFE70F98006874
:1058200040F28841C4F20201884212D0FFE70F988B
:10583000006840F2A041C4F20201884209D0FFE7AB
:105840000F98006840F2B841C4F20201884207D1C3
:10585000FFE70F980068006800F01000029006E073
:105860000F980068006800F002000290FFE70298BD
:10587000002800F08980FFE70F98C06D00F01F013D
:1058800020208840099988600F9890F835000428F6
:1058900037D1FFE70F980168086820F0160008600C
:1058A0000F980168486920F0800048610F98006CEB
:1058B00020B9FFE70F98806C38B1FFE70F980168B7
:1058C000086820F008000860FFE70F98C06D00F03E
:1058D0001F013F208840099988600F99012081F8B5
:1058E0003500FFE70F99002081F83400FFE70F989B
:1058F000006D20B1FFE70F98016D8847FFE700F0CA
:1059000019BC0F9800680068400300281AD5FFE70B
:105910000F98006800680003002809D4FFE70F987B
:10592000406C20B1FFE70F98416C8847FFE708E023
:105930000F98C06B20B1FFE70F98C16B8847FFE756
:10594000FFE720E00F9800680068C005002811D428
:10595000FFE70F980168086820F0100008600F99B1
:10596000012081F83500FFE70F99002081F834000D
:10597000FFE7FFE70F98C06B20B1FFE70F98C16BFF
:105980008847FFE7FFE7FFE7FFE70F98406D002834
:1059900000F0D480FFE70F98406DC007002800F0AA
:1059A000C480FFE70F99042081F835000F98006844
:1059B0001021C4F20201884200F08180FFE70F98B5
:1059C00000682821C4F20201884278D0FFE70F98CE
:1059D00000684021C4F20201884270D0FFE70F98AE
:1059E00000685821C4F20201884268D0FFE70F988E
:1059F00000687021C4F20201884260D0FFE70F986E
:105A000000688821C4F20201884258D0FFE70F984D
:105A10000068A021C4F20201884250D0FFE70F982D
:105A20000068B821C4F20201884248D0FFE70F980D
:105A3000006840F21041C4F2020188423FD0FFE703
:105A40000F98006840F22841C4F20201884236D023
:105A5000FFE70F98006840F24041C4F2020188421B
:105A60002DD0FFE70F98006840F25841C4F20201C0
:105A7000884224D0FFE70F98006840F27041C4F2DA
:105A8000020188421BD0FFE70F98006840F288416E
:105A9000C4F20201884212D0FFE70F98006840F27A
:105AA000A041C4F20201884209D0FFE70F980068C4
:105AB00040F2B841C4F20201884207D1FFE70F98D3
:105AC0000168086820F00100086006E00F9801688E
:105AD000086820F001000860FFE7FFE70B9801303D
