:020000040800F2
:10000000B0BB0024E102000819E7000801D800088D
:1000100011E70008090B0008796B010800000000D7
:1000200000000000000000000000000051F7000880
:100030006125000800000000B1EE000849FA000840
:10004000FB020008FB020008FB020008FB0200089C
:10005000FB020008FB020008FB020008FB0200088C
:10006000FB020008FB020008FB020008F116000872
:1000700001170008111700082117000831170008A0
:100080004117000851170008FB0200080927000863
:10009000A1270008FB020008FB020008FB02000881
:1000A000FB020008FB020008FB020008FB0200083C
:1000B00099FC0008FB020008FB020008FB02000894
:1000C000FB020008FB020008FB020008FB0200081C
:1000D00061F50008FB020008B9140108FB020008E2
:1000E000FB020008FB02000800000000FB02000801
:1000F000FB020008FB020008FB020008FB020008EC
:10010000FB020008FB020008FB020008FB020008DB
:10011000FB02000821050108FB020008FB020008A1
:10012000FB020008FB020008FB020008FB020008BB
:10013000FB020008FB020008FB020008FB020008AB
:1001400000000000000000000000000000000000AF
:10015000FB020008FB020008FB020008FB0200088B
:10016000FB020008FB020008FB020008FB0200087B
:10017000FB02000891E70008FB02000800000000F5
:10018000FB020008FB020008FB020008FB0200085B
:10019000FB020008FB020008FB020008FB0200084B
:1001A000FB020008FB020008FB0200080000000040
:1001B000FB020008FB020008FB020008FB0200082B
:1001C000FB020008FB020008000000000000000025
:1001D0000000000000000000FB020008000000001A
:1001E000000000000000000000000000000000000F
:1001F0000000000000000000FB020008FB020008F5
:10020000FB020008FB02000800000000FB020008DF
:10021000FB020008FB020008FB020008FB020008CA
:10022000FB02000800000000FB02000800000000C4
:10023000FB020008FB02000800000000FB020008AF
:10024000FB020008FB020008FB020008FB0200089A
:10025000FB020008FB020008FB020008FB0200088A
:10026000FB020008FB020008FB020008FB0200087A
:10027000FB020008FB020008FB020008000000006F
:10028000FB020008FB020008FB020008FB0200085A
:1002900000000000FB020008FB0200080000000054
:1002A00000000000FB020008FB020008FB0200083F
:1002B000A9140108FB020008FB0200083928000805
:1002C000FB020008FB020008FB020008DFF80CD06C
:1002D00000F08CF80048004769810108B0BB002499
:1002E0000648804706480047FEE7FEE7FEE7FEE7D0
:1002F000FEE7FEE7FEE7FEE7FEE7FEE759FB000844
:10030000CD0200082DE9F05F0546002092469B468D
:1003100088460646814640241BE02846414647461B
:10032000224600F053F853465A46C01A914110D362
:1003300011461846224600F03AF82D1A67EB0108DC
:100340004F4622460120002100F031F817EB00094A
:100350004E41201EA4F10104DFDC484631462A4606
:100360004346BDE8F09F40EA01039B0703D009E044
:1003700008C9121F08C0042AFAD203E011F8013B91
:1003800000F8013B521EF9D27047D2B201E000F8EA
:10039000012B491EFBD270470022F6E710B5134629
:1003A0000A4604461946FFF7F0FF204610BD202AF2
:1003B00004DB203A00FA02F1002070479140C2F1BC
:1003C000200320FA03F3194390407047202A04DBEE
:1003D000203A21FA02F00021704721FA02F3D040BE
:1003E000C2F120029140084319467047064C074D60
:1003F00006E0E06840F0010394E8070098471034F5
:10040000AC42F6D3FFF766FF94A70108B4A7010832
:1004100070B58C1810F8015B15F0070301D110F8C6
:10042000013B2A1106D110F8012B03E010F8016BF3
:1004300001F8016B5B1EF9D12B0705D40023521E76
:100440000DD401F8013BFAE710F8013BCB1A921CDE
:1004500003E013F8015B01F8015B521EF9D5A142DC
:10046000D8D3002070BD000080B540F60000C5F66E
:1004700002000122114606F0A7FF80BD0000000027
:1004800080B540F60000C5F602000121002206F00A
:100490009BFF80BD0000000080B540F60000C5F65F
:1004A00002000821012206F08FFF80BD000000003D
:1004B00080B540F60000C5F602000821002206F0D3
:1004C00083FF80BD0000000080B584B00390FFF77B
:1004D000D7FF922000F040FA41F24611C2F20041EB
:1004E0001220062200F000FAFFF7BEFF41F2B6002C
:1004F000C2F200400078002854D0FFE741F24613D2
:10050000C2F200431878597840EA012041F24411C0
:10051000C2F200410880B1F9000000EE100AB8EE06
:10052000C00A40F68800C2F2004090ED001A20EEAA
:10053000011A039A92ED082A92ED0C0A11EE020AB2
:1005400082ED000A9A7893F803C042EA0C220A80EE
:10055000B1F9002000EE102AB8EEC00A90ED001AA2
:1005600020EE011A039A92ED082A92ED0D0A11EE7F
:10057000020A82ED010A1A795B7942EA03220A80B3
:10058000B1F9001000EE101AB8EEC00A90ED001A92
:1005900020EE010A039890ED081A20EE010A80ED82
:1005A000020A4FE041F24613C2F20043187859782C
:1005B00040EA012041F24411C2F200410880B1F941
:1005C000000000EE100AB8EEC00A40F68800C2F241
:1005D000004090ED001A20EE010A039A92ED081AED
:1005E00020EE010A82ED000A9A7893F803C042EAED
:1005F0000C220A80B1F9002000EE102AB8EEC00AE1
:1006000090ED001A20EE010A039A92ED081A20EEEE
:10061000010A82ED010A1A795B7942EA03220A8013
:10062000B1F9001000EE101AB8EEC00A90ED001AF1
:1006300020EE010A039890ED081A20EE010A80EDE1
:10064000020AFFE7FFF734FF41F24611C2F2004110
:1006500002910020082200F047F9FFF71DFF0298E1
:1006600000780F2840F09880FFE741F2B600C2F210
:100670000040007800284AD0FFE741F24613C2F25A
:1006800000439878D97840EA012041F24411C2F23F
:1006900000410880B1F9000000EE100AB8EEC01A5F
:1006A00040F68C00C2F2004090ED002A039A92EDD1
:1006B000090A11EE020A82ED030A1A7993F805C0BD
:1006C00042EA0C220A80B1F9002000EE102AB8EEAE
:1006D000C01A90ED002A039A92ED0A0A11EE020A5E
:1006E00082ED040A9A79DB7942EA03220A80B1F9A1
:1006F000001000EE101AB8EEC01A90ED002A039810
:1007000090ED0B0A11EE020A80ED050A43E041F27A
:100710004613C2F200439878D97840EA012041F2AA
:100720004411C2F200410880B1F9000000EE100A45
:10073000B8EEC00A40F68C00C2F2004090ED001AFC
:1007400020EE010A039A82ED030A1A7993F805C094
:1007500042EA0C220A80B1F9002000EE102AB8EE1D
:10076000C00A90ED001A20EE010A039A82ED040AF5
:100770009A79DB7942EA03220A80B1F9001000EE8F
:10078000101AB8EEC00A90ED001A20EE010A039884
:1007900080ED050AFFE7FFE7FFF772FEA22000F0F9
:1007A000DBF841F24611C2F20041019122200222FF
:1007B00000F09AF8FFF758FE019908784978C000D0
:1007C00040EA511141F24410C2F200400180B0F9F8
:1007D0000000B0F5806F09DBFFE741F24411C2F27F
:1007E00000410888A0F500600880FFE741F244104E
:1007F000C2F20040B0F9000000EE100AB8EEC01AD4
:10080000B4EE002AB3EE070A01EE020A039880ED67
:10081000070A04B080BD000080B584B003908DF855
:100820000B10039841F25011C2F20041086042F6E9
:10083000A801C2F2004101910020087016F01CFED0
:100840000199024608781043087016F0F5FE0199E8
:1008500002460878104308709DF80B0038B1FFE796
:1008600041F20410C2F2004000F0C2F931E041F25E
:100870000411C2F20041009141F20300C3F6B83006
:1008800048624CF60860C3F68D2088624AF28B00FD
:10089000C3F60B00C86240F21060C3F65D600863E7
:1008A00041F60400CBF6D26048630020886348F22A
:1008B0007A40C4F21D10C86391ED0F1A9FED080A2B
:1008C00080EE010A81ED080A0020C4F22020886130
:1008D000FFE742F6A800C2F20040007804B080BDF5
:1008E000C3F51C410000000080B584B08DF80F00F6
:1008F00002918DF807209DF80F0040F0800000F075
:100900002BF8FFE79DF8070070B1FFE7552000F0D6
:1009100023F8029908700298013002909DF80700B0
:1009200001388DF80700EDE704B080BD000000003D
:1009300080B582B08DF8070000919DF8070040F067
:10094000800000F009F8552000F006F800990870C2
:1009500002B080BD0000000080B582B08DF80700B5
:1009600041F25010C2F2004000686A464FF47A71BA
:1009700011600DF107010DF1060201230BF040F9A2
:100980009DF8060002B080BD80B582B08DF80700EA
:100990008DF806109DF80700FFF7DEFF9DF80600B2
:1009A000FFF7DAFF02B080BD80B540F20001C2F26D
:1009B000004101F1120243F6D400C2F200401223BA
:1009C00010F082FD40F22401C2F2004101F1100258
:1009D00043F64000C2F20040102310F075FD40F2D3
:1009E0004401C2F2004101F11F0243F2AC70C2F2B5
:1009F00000401F2310F068FD80BD000000000000D3
:100A000083B0029001910092009890ED002A90ED41
:100A1000014A90ED026A90ED035AB6EE001AB0EE6C
:100A2000417A06EE467A05EE457A029824EE060AE9
:100A300002EE450AD0ED000AD0ED011A90ED023A1F
:100A400020EE210A07EE200A22EE062A04EE052AED
:100A500002EE030A30EE000A019880ED000A0098C9
:100A600090ED004A90ED015A90ED022A90ED036A54
:100A700024EE067A05EE027A0298B0EE410A05EEFF
:100A8000450A06EE460AD0ED000AD0ED011A90EDB7
:100A9000023A20EE210A07EE200A22EE062A04EE90
:100AA000452A02EE030A30EE000A019880ED010AA1
:100AB000009890ED000A90ED014A90ED023A90ED19
:100AC000032A24EE025A00EE435A029820EE040A4A
:100AD00003EE020A90ED006A90ED017A90ED022A91
:100AE00020EE070A05EE060A04EE441A03EE431A46
:100AF00001EE020A30EE000A019880ED020A03B00E
:100B00007047000000000000FFE7FEE70000000063
:100B100084B08DF80F000291ADF806209DF80F000B
:100B20000146009123281DD80099DFE801F0121337
:100B30001415161B1B1B1B1B1B1B1B1B1B1B1B1B17
:100B40001B1B1B1B1B1B1B1B1B1B1B1B1B1B1718FC
:100B5000191A08E007E006E005E004E003E002E01F
:100B600001E000E0FFE7002004B070470000000053
:100B7000002070470000000080B582B042F67C1073
:100B8000C2F20040009042F29401C2F20041002201
:100B9000019211F005FA009841F69401C2F2004169
:100BA00011F0DEF9019802B080BD000000000000E5
:100BB00080B582B0019000910098008814F09CF9F3
:100BC000002002B080BD000083B0029001918DF83A
:100BD000032000208DF802009DF9020003B0704749
:100BE00080B582B00190FFE716F0CAFFFCE7000075
:100BF00080B592B01190002010900F9001F0C4FBCE
:100C000041F27810C2F2004080ED000AFFE701F0E7
:100C1000BBFB41F27810C2F2004090ED001A30EEBA
:100C2000410AB2EE041AB4EE410AF1EE10FA1EDDEA
:100C3000FFE7119941F20300C3F6B83048621199F9
:100C40004CF60860C3F68D20886211994AF28B0039
:100C5000C3F60B00C862119948F27A40C4F21D1025
:100C6000C86311990020C4F220208861ECE29FED56
:100C7000E70A01F035FB11990020C8631199486219
:100C8000119988621199C862ADF81200FFE7BDF8AA
:100C9000120040F69401C2F200410988884280F2B5
:100CA000DF81FFE7FFF7ECFB9220FFF755FE1220F4
:100CB0000FA902910622FFF717FEFFF7D5FB9DF85B
:100CC0003C009DF83D1040EA0120ADF83A00BDF926
:100CD0003A0000EE100AB8EEC00A40F68800C2F2F0
:100CE000004090ED001A20EE010A119981ED000AF2
:100CF0009DF83E109DF83F2041EA0221ADF83A10E0
:100D0000BDF93A1000EE101AB8EEC00A90ED001AC4
:100D100020EE010A119981ED010A9DF840109DF81D
:100D2000412041EA0221ADF83A10BDF93A1000EE37
:100D3000101AB8EEC00A90ED001A20EE010A1198C0
:100D400080ED020A119890ED002A90ED010A90EDD5
:100D5000021A20EE000A02EE020A01EE010A18F061
:100D6000E2FE8DED070A9DED071A119890ED0F0A2E
:100D700030EE010A80ED0F0AFFF79AFB029900207E
:100D80000822FFF7B1FDFFF787FB9DF83C000F2815
:100D90005FD1FFE79DF83E009DF83F1040EA01203B
:100DA000ADF83A00BDF93A0000EE100AB8EEC00AFC
:100DB00040F68C00C2F2004090ED001A20EE010ACD
:100DC000119981ED030A119991ED031A91ED090A28
:100DD00030EE010A81ED090A9DF840109DF841208E
:100DE00041EA0221ADF83A10BDF93A1000EE101AAE
:100DF000B8EEC00A90ED001A20EE010A119981EDBB
:100E0000040A119991ED041A91ED0A0A30EE010AD3
:100E100081ED0A0A9DF842109DF8432041EA022123
:100E2000ADF83A10BDF93A1000EE101AB8EEC00A4B
:100E300090ED001A20EE010A119880ED050A119834
:100E400090ED051A90ED0B0A30EE010A80ED0B0AC9
:100E5000FFE7BDF8120038BBFFE707980690079838
:100E6000059000208DF81100FFE79DF81100022881
:100E700019DCFFE711989DF8112000EB8200C06893
:100E80000BA941F8220011989DF8112000EB820077
:100E9000C06808A941F82200FFE79DF81100013061
:100EA0008DF81100E1E762E09DED070A9DED061A5D
:100EB000B4EE410AF1EE10FA03DDFFE70798069061
:100EC000FFE79DED070A9DED051AB4EE410AF1EE2C
:100ED00010FA03DAFFE707980590FFE700208DF886
:100EE0001000FFE79DF8100002283FDCFFE7119893
:100EF0009DF8101000EB810090ED030A0BA800EBA9
:100F0000810090ED001AB4EE410AF1EE10FA0ADD0C
:100F1000FFE711989DF8102000EB8200C0680BA934
:100F200041F82200FFE711989DF8101000EB8100B6
:100F300090ED030A08A800EB810090ED001AB4EED2
:100F4000410AF1EE10FA0ADAFFE711989DF8102035
:100F500000EB8200C06808A941F82200FFE7FFE724
:100F60009DF8100001308DF81000BBE7FFE79DED04
:100F7000060A9DED051A30EE410A42F6AC00C2F2B7
:100F8000004080ED000A00208DF80F00FFE79DF87B
:100F90000F0002281DDCFFE79DF80F100BA800EBE7
:100FA000810090ED000A08A800EB810090ED001A86
:100FB00030EE410A42F67010C2F2004000EB8100B0
:100FC00080ED000AFFE79DF80F0001308DF80F005B
:100FD000DDE742F6AC00C2F2004090ED000AB6EE4A
:100FE000001AB4EE410AF1EE10FA2DDCFFE742F6EA
:100FF0007010C2F2004090ED000A9FEDE61AB4EEC8
:10100000410AF1EE10FA1FDC02E000BF0AD7A33B51
:1010100042F67010C2F2004090ED010A9FEDDD1A19
:10102000B4EE410AF1EE10FA0EDCFFE742F6701062
:10103000C2F2004090ED020A9FEDD61AB4EE410ACA
:10104000F1EE10FA01DDFFE70AE09FEDD30A01F0AF
:1010500047F9FFE7BDF812000130ADF8120016E6BF
:1010600040F69400C2F20040008800EE100AB8EE8C
:10107000401A119890ED0F0A80EE010A80ED0F0AD8
:1010800000208DF80E00FFE79DF80E0002281BDC03
:10109000FFE740F69400C2F20040008800EE100A1C
:1010A000B8EE401A11989DF80E1000EB810090EDFB
:1010B000090A80EE010A80ED090AFFE79DF80E009B
:1010C00001308DF80E00DFE7FFF7DAF9A220FFF715
:1010D00043FC22200FA90222FFF706FCFFF7C4F908
:1010E0009DF83C009DF83D10C00040EA5110ADF85D
:1010F0003A00BDF93A00B0F5806F07DBFFE7BDF8B5
:101100003A00A0F50060ADF83A00FFE7BDF93A00FB
:1011100000EE100AB8EEC01AB4EE002AB3EE070AC9
:1011200001EE020A119880ED060A42F6A001C2F211
:101130000041088801300880FFE742F6AC00C2F2A7
:10114000004090ED000A0120B6EE001AB4EE410A0C
:10115000F1EE10FA019071DCFFE7119890ED0F0AA3
:101160009FED8E1A30EE010AB0EEC00A0120B6EEF5
:10117000001AB4EE410AF1EE10FA01905EDCFFE7CE
:1011800042F67010C2F2004090ED000A01209FED7F
:10119000811AB4EE410AF1EE10FA01904EDCFFE73D
:1011A00042F67010C2F2004090ED010A01209FED5E
:1011B000791AB4EE410AF1EE10FA01903EDCFFE735
:1011C00042F67010C2F2004090ED020A01209FED3D
:1011D000711AB4EE410AF1EE10FA01902EDCFFE72D
:1011E000119890ED090AB0EEC00A01209FED6C1A2B
:1011F000B4EE410AF1EE10FA01901FDCFFE71198FE
:1012000090ED0A0AB0EEC00A01209FED651AB4EE17
:10121000410AF1EE10FA019010DCFFE7119890ED11
:101220000B0AB0EEC00A9FED5E1A0020B4EE410A30
:10123000F1EE10FAC8BF01200190FFE70198C00746
:1012400000287FF4E4ACFFE7119890ED0F1A9FEDB2
:10125000550A80EE010A80ED080A0020ADF80C0066
:10126000FFE7BDF80C0040F69601C2F20041098884
:10127000884280F28C80FFE7FFF702F99220FFF7A7
:101280006BFB12200FA90622FFF72EFBFFF7ECF8ED
:101290009DF83C009DF83D1040EA0120ADF83A0071
:1012A000BDF93A0000EE100AB8EEC00A40F6880018
:1012B000C2F2004090ED001A20EE010A119991ED62
:1012C000081A20EE010A81ED000A119991ED000A39
:1012D00091ED0C1A9FED343A20EE030A9FED332A6C
:1012E00001EE020A81ED0C0A9DF83E109DF83F20A8
:1012F00041EA0221ADF83A10BDF93A1000EE101A99
:10130000B8EEC00A90ED001A20EE010A119991ED95
:10131000081A20EE010A81ED010A119991ED010AE6
:1013200091ED0D1A20EE030A01EE020A81ED0D0A7D
:101330009DF840109DF8412041EA0221ADF83A1095
:10134000BDF93A1000EE101AB8EEC00A90ED001A7E
:1013500020EE010A119890ED081A20EE010A80EDA6
:10136000020A119890ED020A90ED0E1A20EE030A7F
:1013700001EE020A80ED0E0A9FED070A00F0B0FFB1
:10138000FFE7BDF80C000130ADF80C0069E712B0C2
:1013900080BD00BF9A99193E6F12033ACDCC1CC193
:1013A0000AD7233CC3F51C41CDCC4C3ECDCC4C3FA1
:1013B00080B586B040F69800C2F20040029000F17D
:1013C000C00143F24000C2F2004001909FED222A8A
:1013D0008DED042A03220592B0EE420AF0EE420A95
:1013E000B0EE421AF0EE421A00F0EEFC01980299BB
:1013F0009DED042A059A8031B0EE420AF0EE420AD1
:10140000B0EE421AF0EE421A00F0DEFC02999DEDB9
:10141000042A059A42F6A070C2F200400390B0EE92
:10142000420AF0EE420AB0EE421AF0EE421A00F022
:10143000CBFC029903989DED042A059A4031B0EE49
:10144000420AF0EE420AB0EE421AF0EE421A00F002
:10145000BBFC06B080BD00BF000000000000000023
:1014600080B582B000F030FC40F69800C2F2004037
:10147000019000F5B07015F0A3FE019800F508701A
:1014800015F09EFE00F004F802B080BD00000000E0
:1014900080B584B041F20430C2F2004049F6A8425F
:1014A000C0F60102002101919FED0D0A8DED020AA7
:1014B000DFED0C0ACDED030A0DF08AFC01999DEDDC
:1014C000020ADDED030A41F24C30C2F2004049F657
:1014D000B442C0F601020DF07BFC04B080BD00BF39
:1014E0000000B4420000000086B004908DED030AB5
:1014F000ADF80A10002001900090049818B9FFE799
:101500000020059090E004980078C00750B9FFE7EC
:1015100004990889488104990020C8600499012031
:101520000870FFE70499B1F90800B1F90A10884280
:1015300010DAFFE70499B1F90800B1F90A10401A6E
:10154000BDF80A10084400EE100AB8EEC00A8DED8E
:10155000010A18E00499B1F90800B1F90A108842AB
:1015600010DDFFE70499B1F90800B1F90A10401A3B
:10157000BDF80A10401A00EE100AB8EEC00A8DED50
:10158000010AFFE7FFE70499B1F90800B1F90A1071
:10159000401A00EE100AB8EEC00A8DED000A049958
:1015A000088948819DED010AB0EEC00A9DED001A40
:1015B000B0EEC11AB4EE410AF1EE10FA18DDFFE701
:1015C0009DED000ABDF80A0001EE100AB8EEC11A3E
:1015D0009DED032A21EE021A80EE011A049890ED87
:1015E000030A9FED132A01EE020A80ED030A17E0B9
:1015F0009DED010ABDF80A0001EE100AB8EEC11A0D
:101600009DED032A21EE021A80EE011A049890ED56
:10161000030A9FED072A01EE020A80ED030AFFE7A5
:101620000498C0680590FFE79DED050A06B0704775
:101630000000B4430000000080B584B00390029124
:1016400001920198B0F5002F01D0FFE74BE002981E
:1016500080790399087702980178407840EA012060
:101660000399888202988178C07840EA0120039922
:10167000488202980179407940EA01200399088262
:10168000039800780146009140B1FFE700980128D7
:1016900010D0FFE70098022818D023E003980C3000
:1016A000B7EE000A4FF40051FFF71EFF039880EDDC
:1016B000060A18E003980C30B3EE030A4FF4005109
:1016C000FFF712FF039880ED060A0CE003980C3038
:1016D0009FED060A4FF40051FFF706FF039880EDD7
:1016E000060A00E0FFE704B080BD00BF0000104222
:1016F00080B542F65840C2F2004002F019FC80BDAD
:1017000080B542F6D040C2F2004002F011FC80BD2C
:1017100080B542F64850C2F2004002F009FC80BD9C
:1017200080B542F6B060C2F2004002F001FC80BD1C
:1017300080B542F62870C2F2004002F0F9FB80BD8D
:1017400080B542F6C050C2F2004002F0F1FB80BD0D
:1017500080B542F63860C2F2004002F0E9FB80BD7D
:1017600083B002900298016801201022C4F20202A4
:101770009142009000F0A380FFE7029801680120E9
:101780002822C4F202029142009000F09880FFE704
:101790000298016801204022C4F2020291420090A6
:1017A00000F08D80FFE70298016801205822C4F202
:1017B00002029142009000F08280FFE702980168E7
:1017C00001207022C4F202029142009077D0FFE71C
:1017D0000298016801208822C4F20202914200901E
:1017E0006DD0FFE7029801680120A022C4F2020236
:1017F0009142009063D0FFE7029801680120B8226F
:10180000C4F202029142009059D0FFE702980168A9
:10181000012040F21042C4F20202914200904ED0E8
:10182000FFE702980168012040F22842C4F2020258
:101830009142009043D0FFE702980168012040F2F6
:101840004042C4F202029142009038D0FFE7029871
:101850000168012040F25842C4F202029142009015
:101860002DD0FFE702980168012040F27042C4F2D7
:1018700002029142009022D0FFE702980168012005
:1018800040F28842C4F202029142009017D0FFE772
:1018900002980168012040F2A042C4F20202914283
:1018A00000900CD0FFE7029800684FF64831CBF665
:1018B000FD710844B0FA80F040090090FFE70098FD
:1018C000C00740B3FFE70298007810384AF6AB2112
:1018D000CAF6AA21A0FB011000090190019800F0AE
:1018E000070149F6E040C0F60100405C0299C86576
:1018F0000198042807D3FFE702990868042262F3DD
:101900000900886506E00299086840F2FF329043BA
:101910008865FFE705E00299086820F0FF00886508
:10192000FFE70298806D03B07047000000000000E0
:1019300084B0039003980068019003980168012027
:1019400045F20842C5F60202914200904ED0FFE7F0
:1019500003980168012045F21C42C5F6020291423B
:10196000009043D0FFE703980168012045F2304220
:10197000C5F602029142009038D0FFE70398016853
:10198000012045F24442C5F60202914200902DD05A
:10199000FFE703980168012045F25842C5F60202AC
:1019A0009142009022D0FFE703980168012045F2A0
:1019B0006C42C5F602029142009017D0FFE70398EF
:1019C0000168012045F28042C5F602029142009072
:1019D0000CD0FFE7039800684AF66C31CAF2FD713B
:1019E0000844B0FA80F040090090FFE70098C00773
:1019F00010B3FFE70398007808384CF6CD41CCF6D9
:101A0000CC41A0FB011000090290029945F60000AC
:101A1000C5F6020000EB810003990866039945F6BC
:101A20008000C5F602004866029800F01F01012000
:101A300088400399886635E00398007810384AF6A4
:101A4000AB21CAF6AA21A0FB01100009029001985F
:101A500040F2B841C4F2020188420CD8FFE7019875
:101A600040F21041C4F20201884204D3FFE7029819
:101A700008300290FFE7029940F60000C4F202002D
:101A800000EB810003990866039940F68000C4F2D8
:101A900002004866029800F01F0101208840039967
:101AA0008866FFE704B0704783B00290029800791F
:101AB00001900198002800F08A80FFE7019808282B
:101AC00000F28580FFE702980168012045F2084294
:101AD000C5F60202914200904ED0FFE702980168DD
:101AE000012045F21C42C5F602029142009043D00B
:101AF000FFE702980168012045F23042C5F6020274
:101B00009142009038D0FFE702980168012045F229
:101B10004442C5F60202914200902DD0FFE70298A0
:101B20000168012045F25842C5F602029142009038
:101B300022D0FFE702980168012045F26C42C5F609
:101B400002029142009017D0FFE70298016801203D
:101B500045F28042C5F60202914200900CD0FFE7A8
:101B6000029800684AF66C31CAF2FD710844B0FA76
:101B700080F040090090FFE70098C00780B1FFE7C0
:101B8000019945F6FC00C5F6020000EB81000299C0
:101B9000C866029945F64010C5F6020008670FE0D6
:101BA000019940F6FC00C4F2020000EB81000299AA
:101BB000C866029940F64010C4F202000867FFE7C9
:101BC0000198411E0120884002994867FFE703B051
:101BD000704700000000000085B0049000208DF8E0
:101BE0000F000498806918BBFFE70498806A029090
:101BF00003281BD80299DFE801F0020D02180498AF
:101C000090F82F00C00720B1FFE701208DF80F00EA
:101C1000FFE70CE00498C06AB0F1C07F04D1FFE791
:101C200001208DF80F00FFE701E000E0FFE747E04B
:101C300004988069B0F5005F26D1FFE70498806AB8
:101C4000019003281ED80199DFE801F00206021175
:101C500001208DF80F0016E0049890F82F00C007BF
:101C600020B1FFE701208DF80F00FFE70BE004989B
:101C7000C06AB0F1C07F04D1FFE701208DF80F00EA
:101C8000FFE700E0FFE71AE00498806A009003286D
:101C900004D3FFE70098032804D00EE001208DF85C
:101CA0000F000BE0049890F82F00C00720B1FFE769
:101CB00001208DF80F00FFE700E0FFE7FFE7FFE7F7
:101CC0009DF80F0005B0704780B584B001208DF8F5
:101CD0000F0000208DF80E00FFE79DF80E00092888
:101CE00039DCFFE740F69800C2F200400190B0F8FE
:101CF000C410B0F8C0209DF80F3043F24000C2F28B
:101D00000040009000F02CF8019A0098B2F884107E
:101D1000B2F880209DF80F3000F022F801988188F9
:101D200002889DF80F3042F6A070C2F20040029087
:101D300000F016F8019A0298B2F84410B2F8402068
:101D40009DF80F3000F00CF8FFE79DF80E00013011
:101D50008DF80E00C1E704B080BD00000000000057
:101D600080B586B00590ADF81210ADF810208DF852
:101D70000F30BDF81200BDF810100844ADF8040093
:101D8000FF208DF807008DF808008DF809008DF808
:101D90000A008DF80B008DF80C008DF80D00FC206A
:101DA0008DF80E000598BDF804100DF10702082308
:101DB00015F0FEFC9DF80F0016F066FA012006B043
:101DC00080BD00000000000080B59EB017AB0793F7
:101DD000034607981D931C9180ED040AC0ED030A89
:101DE00080ED021AC0ED011A80ED002A8DF85B200B
:101DF0001C9800880146089160B1FFE70898B0F58B
:101E0000807F00F01B81FFE70898B0F5007F00F0AD
:101E1000488167E11C984068ADF846001C98C0787E
:101E2000002844D1FFE7079890ED040AFAEE090A6A
:101E3000B2EE091A102015F077FF01460798ADF8A9
:101E4000501090ED030AFBEE0E0AB3EE0E1A0C20B2
:101E5000069015F069FF079902460698ADF84E20E6
:101E600091ED020ADFEDA40ACDED050A9FEDA31A5C
:101E700015F05AFFDDED050A079902460698ADF800
:101E80004C2091ED010AB1EE041A15F04DFF0799AF
:101E900002460698ADF84A2091ED000AFAEE040ACF
:101EA000B2EE041A15F040FFADF8480093E01C981C
:101EB000C078012844D1FFE7079890ED040AFAEEB4
:101EC000090AB2EE091A102015F02EFF01460798F4
:101ED000ADF8501090ED030AFAEE040AB2EE041ABF
:101EE0000C20049015F020FF079902460498ADF8E5
:101EF0004E2091ED020ADFED800ACDED030A9FED41
:101F00007F1A15F011FFDDED030A079902460498C8
:101F1000ADF84C2091ED010AB1EE041A15F004FF62
:101F2000079902460498ADF84A2091ED000AFBEEAD
:101F30000C0AB3EE0C1A15F0F7FEADF8480049E0B4
:101F40001C98C078022844D1FFE7079890ED040A56
:101F5000FAEE090AB2EE091A102015F0E5FE014664
:101F60000798ADF8501090ED030ADFED610A9FED80
:101F7000611A0C20029015F0D7FE079902460298CC
:101F8000ADF84E2091ED020ADFED5B0ACDED010ABE
:101F90009FED5A1A15F0C8FEDDED010A07990246B9
:101FA0000298ADF84C2091ED010AB1EE041A15F03B
:101FB000BBFE079902460298ADF84A2091ED000A4F
:101FC000DFED4F0A9FED4F1A15F0AEFEADF8480059
:101FD000FFE7FFE7FFE79DF851008DF853009DF8FC
:101FE00050008DF85400BDF84E0000098DF85500E2
:101FF000BDF84E109DF84D0040EA01108DF85600D6
:102000009DF84C008DF85700BDF84A0000098DF886
:102010005800BDF84A109DF8490040EA01108DF8BB
:1020200059009DF848008DF85A001D98BDF84610DB
:102030000DF15302082315F0BBFB53E01C984068D8
:1020400000F58070ADF832001BA80E901AA80D9014
:102050000E9800788DF83E000E9840788DF83F007D
:102060000E9880788DF840000E98C0788DF8410069
:102070000D9800788DF842000D9840788DF8430057
:102080000D9880788DF844000D98C0788DF8450043
:102090001D98BDF832100DF13E02082315F088FBA3
:1020A00020E01C98406800F50070ADF826001AA8E2
:1020B0000A900A9800788DF82E000A9840788DF8DA
:1020C0002F000A9880788DF830000A98C0788DF833
:1020D00031001D98BDF826100DF12E02042315F0D5
:1020E00067FBFFE79DF85B0016F0CEF81EB080BDE1
:1020F000000034C200003442000000000000FA4337
:10210000000020C20000204280B588B007900691F0
:1021100005920598B0F5002F40F0B880FFE70698CB
:10212000007800F00F000799888106980078000970
:102130000799C8810698B0F80100000400BA079911
:1021400008610699C8780979000140EA11100799D9
:10215000486106980179407901F00F0140EA0120B9
:10216000079988610798C0780146049140B1FFE75C
:10217000049801282AD0FFE7049802284CD071E087
:1021800007980069BAEE090AF2EE090A102116F062
:1021900063FD079880ED090A07984069BBEE0E0AB7
:1021A000F3EE0E0A0C21039116F056FD03990798E1
:1021B00080ED0A0A07988069BAEE040AF2EE040A72
:1021C00016F04AFD079880ED0B0A4CE0079800696D
:1021D000BAEE090AF2EE090A102116F03DFD079841
:1021E00080ED090A07984069BAEE040AF2EE040A83
:1021F0000C21029116F030FD0299079880ED0A0A31
:1022000007988069BBEE0C0AF3EE0C0A16F024FD69
:10221000079880ED0B0A26E007980069BAEE090AD4
:10222000F2EE090A102116F017FD079880ED090A51
:10223000079840699FED160ADFED160A0C210191FF
:1022400016F00AFD0199079880ED0A0A079880693F
:102250009FED110ADFED110A16F0FEFC079880EDE4
:102260000B0A00E0FFE70698807900EE100AB8EE4E
:10227000400A079880ED0E0A0698C07900EE100A11
:10228000B8EE400A079880ED0F0AFFE708B080BD5E
:10229000000034C200003442000020C2000020428E
:1022A00081B041F20400CEF2000000680090009876
:1022B00041F27011C2F200410968884208D2FFE77A
:1022C00041F27411C2F20041086801300860FFE772
:1022D000009841F27011C2F20041086001B07047ED
:1022E00083B08DED020A41F20400CEF200000068D6
:1022F000019002980090FFE741F20400CEF2000046
:1023000000680199401A00EE100AB8EE400A9DEDEF
:10231000001A41F25810C2F2004090ED002AB8EEC7
:10232000422A21EE021AB4EE410AF1EE10FA01DA65
:10233000FFE7E1E703B0704780B584B0039041F256
:102340000400CEF200000068029002980399096828
:10235000401A00EE100AB8EE400A41F25810C2F2DC
:10236000004090ED001AB8EE411A80EE010A8DEDA2
:10237000010A029803990860FFF792FF9DED010A98
:1023800004B080BD0000000080B582B000F068F8A5
:1023900041F25440C2F2004090ED000AB8EE400A0B
:1023A000818801EE101AB8EEC11A9FED092A01EEDC
:1023B000020AC08801EE100AB8EEC11A9FED052A84
:1023C00001EE020A8DED010A9DED010A02B080BD09
:1023D0006F12833ABD37863581B000904EF6FC51BE
:1023E000CEF20001086840F08070086041F20401FC
:1023F000CEF200010020086041F20002CEF200029D
:10240000116841F001011160009944F24022C0F2CC
:102410000F024A4341F25811C2F200410A600A68B1
:1024200044F6D353C1F26203A2FB0332920941F294
:102430005C13C2F200431A6009684DF68362C4F26D
:102440001B32A1FB0221890C41F26012C2F2004250
:10245000116041F27411C2F20041086001B070478E
:10246000B0B586B041F20400CEF2000000680590DD
:10247000FFF716FF41F27410C2F2004001680598A0
:10248000002302934FF0FF3C1A46E1FB0C0241F29D
:102490006811C2F2004100914A600860086849680A
:1024A00041F25814C2F200442268FDF72BFF029B50
:1024B00002468C46009941F28010C2F20040C0F8FA
:1024C00004C00260D1F800C04968D0F800E042685A
:1024D0002468AEFB04E502FB0452BCEB0E0C61EB7E
:1024E000020241F28811C2F200410391C1F800C01A
:1024F0004A60006841F25442C2F200420492106005
:102500000868496841F25C12C2F200420192126806
:10251000FDF7F8FEDDF804C0029B049A014603981B
:102520009180016840689288DCF800C002FB0CF2E0
:102530008A1A60F1000041F29011C2F200410A6073
:1025400048600868496841F26012C2F200421268AD
:10255000FDF7D8FE0499C88006B0B0BD00000000A9
:10256000704700000000000083B0029001910092CB
:10257000009890ED004A90ED012A90ED025A90EDFE
:10258000036AB6EE001AB0EE417A05EE457A06EE21
:10259000467A029824EE060A02EE050AD0ED000AF9
:1025A000D0ED011A90ED023A20EE210A07EE200A42
:1025B00022EE062A04EE452A02EE030A30EE000A55
:1025C000019880ED000A009890ED002A90ED016AD4
:1025D00090ED024A90ED035A26EE047A02EE457A17
:1025E0000298B0EE410A06EE460A05EE450AD0ED25
:1025F000000AD0ED011A90ED023A20EE210A07EE12
:10260000200A22EE062A04EE052A02EE030A30EE24
:10261000000A019880ED010A009890ED002A90EDE3
:10262000014A90ED023A90ED030A22EE035A04EEBD
:10263000005A029823EE000A02EE440A90ED006A66
:1026400090ED017A90ED022A20EE070A05EE060AC7
:1026500004EE441A03EE431A01EE020A30EE000AB9
:10266000019880ED020A03B07047000000000000EE
:1026700081B0EFF3108072B60090FFE7FEE7000034
:1026800080B58AB0002002900390022104910121BC
:1026900005910690079042F6A070C2F2004002A990
:1026A00003F0EEFA18B1FFE7FFF7E2FFFFE7684635
:1026B0000023036042F6A070C2F2004002221146DD
:1026C00003F06AFB18B1FFE7FFF7D2FFFFE742F61E
:1026D000A070C2F200400121002203F0E1F918B11C
:1026E000FFE7FFF7C5FFFFE742F6A070C2F2004028
:1026F00004F02AFC18B1FFE7FFF7BAFFFFE70AB0C2
:1027000080BD00000000000080B542F6A070C2F25B
:10271000004003F001FD80BD80B58AB0002002902A
:10272000012103910221049105910690079043F243
:102730004000C2F2004002A903F0A2FA18B1FFE77C
:10274000FFF796FFFFE768460023036043F240006F
:10275000C2F200400222114603F01EFB18B1FFE74F
:10276000FFF786FFFFE743F24000C2F2004010216E
:10277000002203F095F918B1FFE7FFF779FFFFE7B3
:1027800043F24000C2F2004004F0DEFB18B1FFE764
:10279000FFF76EFFFFE70AB080BD000000000000F9
:1027A00080B543F24000C2F2004003F0B5FC80BDAA
:1027B00080B58AB00020029002210391049101218A
:1027C00005910690079043F2E000C2F2004002A992
:1027D00003F056FA18B1FFE7FFF74AFFFFE7684634
:1027E0000023036043F2E000C2F2004002221146DF
:1027F00003F0D2FA18B1FFE7FFF73AFFFFE743F221
:10280000E000C2F200400121002203F049F918B1B2
:10281000FFE7FFF72DFFFFE743F2E000C2F20040C1
:1028200004F092FB18B1FFE7FFF722FFFFE70AB0C1
:1028300080BD00000000000080B543F2E000C2F25D
:10284000004003F069FC80BD84B002900298406BA8
:10285000009002980068D0F884004FF6FC7188431D
:10286000009940EA810002990968C1F88400029841
:102870000068D0F8840020F47F00029A1168926BFF
:1028800040EA0240C1F884000298816B0098084435
:10289000009002980068D0F888006FF38F000099CC
:1028A00040EA810002990968C1F88800029800682E
:1028B000D0F8880020F4FE00029A1168D26B40EA3A
:1028C0000240C1F888000298C16B009800EB4100FB
:1028D000009002980068D0F8A0006FF38F00009974
:1028E00040EA810002990968C1F8A00002980068D6
:1028F000D0F8A00020F4FE00029A1168126C40EAA1
:102900000240C1F8A0000299086C496C009A00FBD3
:102910000120009002980068D0F8B0006FF38F009B
:10292000009940EA810002990968C1F8B000029854
:102930000068D0F8B00020F4FE00029A1168926C92
:1029400040EA0240C1F8B0000299886CC96C009A54
:1029500000FB0120009002980068D0F8AC006FF3F3
:102960008F00009940EA810002990968C1F8AC0023
:102970000299086D496D009A00FB012000900298B1
:102980000068D0F8F0006FF38F00009940EA8100F2
:1029900002990968C1F8F00002980068D0F8F000C8
:1029A00020F47C10029A1168926D40EA0240C1F84E
:1029B000F0000298816D009800EB410000900298B1
:1029C0000068D0F8C0006FF38F00009940EA8100E2
:1029D00002990968C1F8C00002980068D0F8C000E8
:1029E00020F47C10029A1168D26D40EA0240C1F8CE
:1029F000C00002980068D0F8C00020F07C50029A15
:102A00001168126E40EA0260C1F8C00002994A6B78
:102A10004AF60040C4F2000000EB8200C86602994A
:102A20008A6BC86E00EB820008670299CA6B086F58
:102A300000EBC200486702990A6C4B6C486F5A431E
:102A400000EB8200886702998A6CCB6C886F5A43CE
:102A500000EB8200C86702990A6D4B6DC86F5A433C
:102A600000EB8200C1F8800002998A6DD1F88000E5
:102A700000EBC200C1F884000299CA6D8B6ED1F8D8
:102A800084005A4300EB8200C1F8880002990A6E64
:102A90008B6ED1F888005A4300EB8200C1F8900099
:102AA0000298D0F890004DF2FD31C4F20001884246
:102AB0000FD3FFE70299D1F89C0040F02000C1F845
:102AC0009C000299032081F8980001208DF80F00E6
:102AD00017E00298C06E0190FFE701980299D1F8C3
:102AE0009010884208D2FFE7019900200860FFE7B4
:102AF000019804300190F0E7FFE700208DF80F0007
:102B0000FFE79DF80F0004B07047000000000000D0
:102B100088B007900691059204930698406848B9DA
:102B2000FFE70698016882680069104340EA814027
:102B3000039009E006980168826800691043084321
:102B400040F080400390FFE70698D0F820C0C168AD
:102B500042698369C06940EA0C6018431043084326
:102B600002900798826ED0F884000499514300EBDC
:102B70008100019003980199086001980430019048
:102B8000029801990860019804300190002000909B
:102B9000FFE700980699CA8949F6D041C0F60101BD
:102BA000895C88420DD2FFE7059800994058019949
:102BB0000860019804300190FFE70098043000900D
:102BC000E7E708B07047000082B08DED010ACDED57
:102BD000000A9DED010AB5EE400AF1EE10FA4BDD58
:102BE000FFE79DED000AB5EE400AF1EE10FA43DA78
:102BF000FFE79DED011A9FED560A30EE410A9DED6B
:102C0000001A30EE010A41F29811C2F2004181ED42
:102C1000000A9DED000A9DED011A30EE410A41F2D5
:102C20009C10C2F2004080ED000A91ED000A90ED88
:102C3000001AB1EE411AB4EE410AF1EE10FA0DDAC3
:102C4000FFE741F29810C2F2004090ED000A41F215
:102C5000A010C2F2004080ED000A0CE041F29C108E
:102C6000C2F2004090ED000A41F2A010C2F2004012
:102C700080ED000AFFE760E09DED010AB5EE400A35
:102C8000F1EE10FA4BDAFFE79DED000AB5EE400ACF
:102C9000F1EE10FA43DDFFE79DED011A9FED2B0ADF
:102CA00030EE410A9DED001A30EE010A41F2981112
:102CB000C2F2004181ED000A9DED000A9DED011A6E
:102CC00030EE410A41F29C10C2F2004080ED000A51
:102CD00091ED000AB1EE400A90ED001AB4EE410AFF
:102CE000F1EE10FA0DDAFFE741F29810C2F200405F
:102CF00090ED000A41F2A010C2F2004080ED000AFF
:102D00000CE041F29C10C2F2004090ED000A41F24A
:102D1000A010C2F2004080ED000AFFE70CE09DED3C
:102D2000000A9DED011A30EE410A41F2A010C2F2F4
:102D3000004080ED000AFFE7FFE741F2A010C2F279
:102D4000004090ED000A02B0704700BFDB0FC9C021
:102D5000DB0FC9400000000084B0039002918DEDAC
:102D6000010ACDED000A41F24421C2F200410020E7
:102D70000880FFE741F24420C2F2004000880328A7
:102D80005BDCFFE741F24621C2F2004100200880EF
:102D9000FFE741F24620C2F200400088092843DCE8
:102DA000FFE7029841F24421C2F200410A8841F251
:102DB0004621C2F20041098802EB820201EB420384
:102DC00003EB430300EBC3009DED013A90ED000AD5
:102DD00090ED012A90ED024A90ED031A02EE030AEB
:102DE0009DED002A04EE020A23EE034A01EE040AD6
:102DF00090ED041A21EE031A01EE020A90ED051A75
:102E000022EE022A01EE020A039800EBC20000EB58
:102E1000810080ED000AFFE741F24621C2F2004145
:102E2000088801300880B4E7FFE741F24421C2F28C
:102E300000410888013008809CE704B0704700001A
:102E400084B002900191ADF80220029828B9FFE702
:102E50004FF6FF70ADF80E0021E0FFE70198411E2C
:102E60000191B8B1FFE70298411C029100788DF8FA
:102E70000100BDF802109DF801004840C2B24AF2BC
:102E80009250C0F6010030F8120080EA1120ADF82F
:102E90000200E3E7BDF80200ADF80E00FFE7BDF861
:102EA0000E0004B07047000080B584B04EF60000FC
:102EB000C1F6F170006803904EF60400C1F6F1709F
:102EC000006802904EF60800C1F6F17000680190AB
:102ED0000199039808440390039888B1FFE7039889
:102EE00041F29C01C2F200410091023108220AF035
:102EF00053FE00990298123104220AF04DFEFFE7BA
:102F000004B080BD0000000080B58AB0089004F0D5
:102F100073FA0490089828B9FFE701208DF827007C
:102F200000F0AABC089890F8350002280ED0FFE700
:102F3000089980204865FFE70899002081F834004F
:102F4000FFE701208DF8270000F096BC0898016883
:102F500001201022C4F202029142039000F0A380EB
:102F6000FFE70898016801202822C4F2020291427A
:102F7000039000F09880FFE7089801680120402244
:102F8000C4F202029142039000F08D80FFE708989E
:102F9000016801205822C4F202029142039000F01D
:102FA0008280FFE70898016801207022C4F20202C3
:102FB0009142039077D0FFE70898016801208822AA
:102FC000C4F20202914203906DD0FFE708980168B5
:102FD0000120A022C4F202029142039063D0FFE7D5
:102FE000089801680120B822C4F2020291420390BD
:102FF00059D0FFE708980168012040F21042C4F25E
:103000000202914203904ED0FFE708980168012028
:1030100040F22842C4F202029142039043D0FFE7FB
:1030200008980168012040F24042C4F20202914235
:10303000039038D0FFE708980168012040F2584219
:10304000C4F20202914203902DD0FFE70898016874
:10305000012040F27042C4F202029142039022D059
:10306000FFE708980168012040F28842C4F202029A
:103070009142039017D0FFE708980168012040F2C1
:10308000A042C4F20202914203900CD0FFE70898DC
:1030900000684FF64831CBF6FD710844B0FA80F075
:1030A00040090390FFE70398C00780B1FFE7089845
:1030B0000168086820F01E000860089801684869E7
:1030C00020F08000486108980068059009E00898A1
:1030D0000168086820F00E000860089800680590F4
:1030E000FFE70898016801201022C4F20202914211
:1030F000029000F00381FFE7089801680120282270
:10310000C4F202029142029000F0F880FFE70898B2
:10311000016801204022C4F202029142029000F0B4
:10312000ED80FFE70898016801205822C4F20202EE
:103130009142029000F0E280FFE7089801680120C8
:103140007022C4F202029142029000F0D780FFE7A1
:103150000898016801208822C4F20202914202907C
:1031600000F0CC80FFE7089801680120A022C4F29B
:1031700002029142029000F0C180FFE708980168C6
:103180000120B822C4F202029142029000F0B680FF
:10319000FFE708980168012040F21042C4F20202E1
:1031A0009142029000F0AA80FFE708980168012090
:1031B00040F22842C4F202029142029000F09E8046
:1031C000FFE708980168012040F24042C4F2020281
:1031D0009142029000F09280FFE708980168012078
:1031E00040F25842C4F202029142029000F08680FE
:1031F000FFE708980168012040F27042C4F2020221
:10320000914202907AD0FFE708980168012040F2CD
:103210008842C4F20202914202906FD0FFE7089800
:103220000168012040F2A042C4F2020291420290E1
:1032300064D0FFE708980168012040F2B842C4F268
:1032400002029142029059D0FFE7089801680120DC
:1032500045F20842C5F60202914202904ED0FFE7C5
:1032600008980168012045F21C42C5F6020291420D
:10327000029043D0FFE708980168012045F23042F0
:10328000C5F602029142029038D0FFE70898016823
:10329000012045F24442C5F60202914202902DD02F
:1032A000FFE708980168012045F25842C5F602027E
:1032B0009142029022D0FFE708980168012045F270
:1032C0006C42C5F602029142029017D0FFE70898BF
:1032D0000168012045F28042C5F602029142029047
:1032E0000CD0FFE7089800684AF66C31CAF2FD710D
:1032F0000844B0FA80F040090290FFE70298C00746
:1033000038B1FFE70898016E086820F48070086003
:10331000FFE7089800681021C4F20201884200F01B
:103320008180FFE7089800682821C4F202018842E2
:1033300078D0FFE7089800684021C4F20201884273
:1033400070D0FFE7089800685821C4F20201884253
:1033500068D0FFE7089800687021C4F20201884233
:1033600060D0FFE7089800688821C4F20201884213
:1033700058D0FFE708980068A021C4F202018842F3
:1033800050D0FFE708980068B821C4F202018842D3
:1033900048D0FFE70898006840F21041C4F20201EB
:1033A00088423FD0FFE70898006840F22841C4F205
:1033B0000201884236D0FFE70898006840F2404199
:1033C000C4F2020188422DD0FFE70898006840F25D
:1033D0005841C4F20201884224D0FFE708980068EF
:1033E00040F27041C4F2020188421BD0FFE7089806
:1033F000006840F28841C4F20201884212D0FFE71F
:103400000898006840F2A041C4F20201884209D045
:10341000FFE70898006840F2B841C4F20201884210
:1034200007D1FFE708980168086820F001000860EC
:1034300006E008980168086820F001000860FFE7CE
:10344000FFE705980068C007C8B1FFE703F0D4FFA5
:103450000499401A062811D3FFE7089920204865EF
:103460000899032081F83500FFE70899002081F8CA
:103470003400FFE701208DF82700FDE1E1E708981F
:10348000016801201022C4F202029142019000F072
:10349000A380FFE70898016801202822C4F20202F5
:1034A0009142019000F09880FFE7089801680120A0
:1034B0004022C4F202029142019000F08D80FFE7A9
:1034C0000898016801205822C4F20202914201903A
:1034D00000F08280FFE70898016801207022C4F2A2
:1034E00002029142019077D0FFE70898016801201D
:1034F0008822C4F20202914201906DD0FFE7089841
:1035000001680120A022C4F202029142019063D01E
:10351000FFE7089801680120B822C4F20202914234
:10352000019059D0FFE708980168012040F210424D
:10353000C4F20202914201904ED0FFE70898016860
:10354000012040F22842C4F202029142019043D08D
:10355000FFE708980168012040F24042C4F20202ED
:103560009142019038D0FFE708980168012040F2AD
:103570005842C4F20202914201902DD0FFE7089810
:103580000168012040F27042C4F2020291420190AF
:1035900022D0FFE708980168012040F28842C4F277
:1035A00002029142019017D0FFE7089801680120BC
:1035B00040F2A042C4F20202914201900CD0FFE717
:1035C000089800684FF64831CBF6FD710844B0FA10
:1035D00080F040090190FFE70198C00760B1FFE764
:1035E0000898806D07900898C06D00F01F013F207B
:1035F0008840079988600BE00898806D06900898CD
:10360000C06D00F01F010120884006994860FFE767
:103610000898016801201022C4F202029142009031
:1036200000F00381FFE70898016801202822C4F216
:1036300002029142009000F0F880FFE708980168CC
:1036400001204022C4F202029142009000F0ED807D
:10365000FFE70898016801205822C4F20202914253
:10366000009000F0E280FFE70898016801207022D6
:10367000C4F202029142009000F0D780FFE7089860
:10368000016801208822C4F202029142009000F0F9
:10369000CC80FFE7089801680120A022C4F2020252
:1036A0009142009000F0C180FFE708980168012076
:1036B000B822C4F202029142009000F0B680FFE707
:1036C00008980168012040F21042C4F202029142BF
:1036D000009000F0AA80FFE708980168012040F2FE
:1036E0002842C4F202029142009000F09E80FFE75F
:1036F00008980168012040F24042C4F2020291425F
:10370000009000F09280FFE708980168012040F2E5
:103710005842C4F202029142009000F08680FFE716
:1037200008980168012040F27042C4F202029142FE
:1037300000907AD0FFE708980168012040F28842A3
:10374000C4F20202914200906FD0FFE7089801682E
:10375000012040F2A042C4F202029142009064D0E3
:10376000FFE708980168012040F2B842C4F2020263
:103770009142009059D0FFE708980168012045F276
:103780000842C5F60202914200904ED0FFE7089829
:103790000168012045F21C42C5F6020291420090E8
:1037A00043D0FFE708980168012045F23042C5F692
:1037B00002029142009038D0FFE70898016801208A
:1037C00045F24442C5F60202914200902DD0FFE737
:1037D00008980168012045F25842C5F6020291425C
:1037E000009022D0FFE708980168012045F26C4262
:1037F000C5F602029142009017D0FFE708980168D1
:10380000012045F28042C5F60202914200900CD0A0
:10381000FFE7089800684AF66C31CAF2FD71084467
:10382000B0FA80F040090090FFE70098C007A0B10F
:10383000FFE70898416E806E48600898C06E58B1E6
:10384000FFE70898C16E086820F480700860089847
:10385000016F406F4860FFE7FFE70899012081F89A
:103860003500FFE70899002081F83400FFE7FFE703
:1038700000208DF82700FFE79DF827000AB080BDE3
:1038800080B586B00490049820B9FFE701208DF838
:10389000170046E3049890F83500022807D0FFE7A8
:1038A00004998020486501208DF8170039E30498B9
:1038B000016801201022C4F202029142029000F03D
:1038C000A380FFE70498016801202822C4F20202C5
:1038D0009142029000F09880FFE70498016801206F
:1038E0004022C4F202029142029000F08D80FFE774
:1038F0000498016801205822C4F202029142029009
:1039000000F08280FFE70498016801207022C4F271
:1039100002029142029077D0FFE7049801680120EB
:103920008822C4F20202914202906DD0FFE704980F
:1039300001680120A022C4F202029142029063D0E9
:10394000FFE7049801680120B822C4F20202914204
:10395000029059D0FFE704980168012040F210421C
:10396000C4F20202914202904ED0FFE7049801682F
:10397000012040F22842C4F202029142029043D058
:10398000FFE704980168012040F24042C4F20202BD
:103990009142029038D0FFE704980168012040F27C
:1039A0005842C4F20202914202902DD0FFE70498DF
:1039B0000168012040F27042C4F20202914202907A
:1039C00022D0FFE704980168012040F28842C4F247
:1039D00002029142029017D0FFE70498016801208B
:1039E00040F2A042C4F20202914202900CD0FFE7E2
:1039F000049800684FF64831CBF6FD710844B0FAE0
:103A000080F040090290FFE70298C007002800F00C
:103A10009D80FFE70499042081F835000498006830
:103A20001021C4F20201884200F08180FFE704986F
:103A300000682821C4F20201884278D0FFE7049888
:103A400000684021C4F20201884270D0FFE7049868
:103A500000685821C4F20201884268D0FFE7049848
:103A600000687021C4F20201884260D0FFE7049828
:103A700000688821C4F20201884258D0FFE7049808
:103A80000068A021C4F20201884250D0FFE70498E8
:103A90000068B821C4F20201884248D0FFE70498C8
:103AA000006840F21041C4F2020188423FD0FFE7B3
:103AB0000498006840F22841C4F20201884236D0DE
:103AC000FFE70498006840F24041C4F202018842D6
:103AD0002DD0FFE70498006840F25841C4F202017B
:103AE000884224D0FFE70498006840F27041C4F295
:103AF000020188421BD0FFE70498006840F2884129
:103B0000C4F20201884212D0FFE70498006840F234
:103B1000A041C4F20201884209D0FFE7049800687E
:103B200040F2B841C4F20201884207D1FFE704988D
:103B30000168086820F00100086006E00498016848
:103B4000086820F001000860FFE7E5E104980168DB
:103B5000086820F00E000860049800681021C4F284
:103B60000201884200F08180FFE704980068282164
:103B7000C4F20201884278D0FFE70498006840212F
:103B8000C4F20201884270D0FFE70498006858210F
:103B9000C4F20201884268D0FFE7049800687021EF
:103BA000C4F20201884260D0FFE7049800688821CF
:103BB000C4F20201884258D0FFE704980068A021AF
:103BC000C4F20201884250D0FFE704980068B8218F
:103BD000C4F20201884248D0FFE70498006840F22E
:103BE0001041C4F2020188423FD0FFE70498006808
:103BF00040F22841C4F20201884236D0FFE704981F
:103C0000006840F24041C4F2020188422DD0FFE733
:103C10000498006840F25841C4F20201884224D05E
:103C2000FFE70498006840F27041C4F20201884244
:103C30001BD0FFE70498006840F28841C4F20201FB
:103C4000884212D0FFE70498006840F2A041C4F215
:103C50000201884209D0FFE70498006840F2B841A9
:103C6000C4F20201884207D1FFE70498016808689E
:103C700020F00100086006E004980168086820F060
:103C800001000860FFE70498016801201022C4F2D7
:103C900002029142019000F00381FFE7049801685D
:103CA00001202822C4F202029142019000F0F88023
:103CB000FFE70498016801204022C4F20202914209
:103CC000019000F0ED80FFE7049801680120582280
:103CD000C4F202029142019000F0E280FFE70498F2
:103CE000016801207022C4F202029142019000F0AA
:103CF000D780FFE70498016801208822C4F20202FD
:103D00009142019000F0CC80FFE704980168012007
:103D1000A022C4F202029142019000F0C180FFE7AC
:103D2000049801680120B822C4F202029142019075
:103D300000F0B680FFE704980168012040F21042CD
:103D4000C4F202029142019000F0AA80FFE70498B9
:103D50000168012040F22842C4F20202914201901F
:103D600000F09E80FFE704980168012040F2404285
:103D7000C4F202029142019000F09280FFE70498A1
:103D80000168012040F25842C4F2020291420190BF
:103D900000F08680FFE704980168012040F270423D
:103DA000C4F20202914201907AD0FFE704980168C0
:103DB000012040F28842C4F20202914201906FD089
:103DC000FFE704980168012040F2A042C4F2020219
:103DD0009142019064D0FFE704980168012040F20D
:103DE000B842C4F202029142019059D0FFE7049810
:103DF0000168012045F20842C5F602029142019095
:103E00004ED0FFE704980168012045F21C42C5F638
:103E100002029142019043D0FFE70498016801201B
:103E200045F23042C5F602029142019038D0FFE7D8
:103E300004980168012045F24442C5F6020291420D
:103E400001902DD0FFE704980168012045F2584207
:103E5000C5F602029142019022D0FFE70498016862
:103E6000012045F26C42C5F602029142019017D042
:103E7000FFE704980168012045F28042C5F602027E
:103E8000914201900CD0FFE7049800684AF66C312B
:103E9000CAF2FD710844B0FA80F040090190FFE7D2
:103EA0000198C00728B3FFE70498016E086820F462
:103EB000807008600498806D03900498C06D00F0D5
:103EC0001F0101208840039948600498416E806E6C
:103ED00048600498C06E58B1FFE70498C16E086846
:103EE00020F4807008600498016F406F4860FFE71D
:103EF000FFE70499012081F83500FFE704990020CD
:103F000081F83400FFE70498006D20B1FFE70498C2
:103F1000016D8847FFE7FFE7FFE700208DF81700F6
:103F2000FFE79DF8170006B080BD0000000000000C
:103F300080B590B00F9000200B9040F6E070C2F278
:103F40000040006848F2B511C1F64E31A0FB0110E7
:103F5000800A0A900F98806D09900F98806D0890E4
:103F6000099800680E90089800680D900F980168F5
:103F700001201022C4F202029142079000F0A380B7
:103F8000FFE70F98016801202822C4F20202914243
:103F9000079000F09880FFE70F9801680120402209
:103FA000C4F202029142079000F08D80FFE70F9863
:103FB000016801205822C4F202029142079000F0E9
:103FC0008280FFE70F98016801207022C4F202028C
:103FD0009142079077D0FFE70F980168012088226F
:103FE000C4F20202914207906DD0FFE70F9801687A
:103FF0000120A022C4F202029142079063D0FFE7A1
:104000000F9801680120B822C4F202029142079081
:1040100059D0FFE70F980168012040F21042C4F226
:104020000202914207904ED0FFE70F9801680120ED
:1040300040F22842C4F202029142079043D0FFE7C7
:104040000F980168012040F24042C4F202029142FE
:10405000079038D0FFE70F980168012040F25842DE
:10406000C4F20202914207902DD0FFE70F98016839
:10407000012040F27042C4F202029142079022D025
:10408000FFE70F980168012040F28842C4F2020263
:104090009142079017D0FFE70F980168012040F286
:1040A000A042C4F20202914207900CD0FFE70F98A1
:1040B00000684FF64831CBF6FD710844B0FA80F045
:1040C00040090790FFE70798C007002800F0138514
:1040D000FFE70E980F99C96D01F01F01C840000756
:1040E000002840F1B080FFE70F9800681021C4F26B
:1040F0000201884200F08180FFE70F9800682821C4
:10410000C4F20201884278D0FFE70F98006840218E
:10411000C4F20201884270D0FFE70F98006858216E
:10412000C4F20201884268D0FFE70F98006870214E
:10413000C4F20201884260D0FFE70F98006888212E
:10414000C4F20201884258D0FFE70F980068A0210E
:10415000C4F20201884250D0FFE70F980068B821EE
:10416000C4F20201884248D0FFE70F98006840F28D
:104170001041C4F2020188423FD0FFE70F98006867
:1041800040F22841C4F20201884236D0FFE70F987E
:10419000006840F24041C4F2020188422DD0FFE79E
:1041A0000F98006840F25841C4F20201884224D0BE
:1041B000FFE70F98006840F27041C4F202018842A4
:1041C0001BD0FFE70F98006840F28841C4F202015B
:1041D000884212D0FFE70F98006840F2A041C4F275
:1041E0000201884209D0FFE70F98006840F2B84109
:1041F000C4F20201884207D1FFE70F980068006807
:1042000000F00400069006E00F980068006800F0D7
:1042100008000690FFE70698A0B1FFE70F98016835
:10422000086820F0040008600F98C06D00F01F01BE
:1042300008208840099988600F99486D40F0010076
:104240004865FFE7FFE70E980F99C96D01F01F0160
:10425000C840C007002800F0A980FFE70F98006859
:104260001021C4F20201884200F08180FFE70F981C
:1042700000682821C4F20201884278D0FFE70F9835
:1042800000684021C4F20201884270D0FFE70F9815
:1042900000685821C4F20201884268D0FFE70F98F5
:1042A00000687021C4F20201884260D0FFE70F98D5
:1042B00000688821C4F20201884258D0FFE70F98B5
:1042C0000068A021C4F20201884250D0FFE70F9895
:1042D0000068B821C4F20201884248D0FFE70F9875
:1042E000006840F21041C4F2020188423FD0FFE76B
:1042F0000F98006840F22841C4F20201884236D08B
:10430000FFE70F98006840F24041C4F20201884282
:104310002DD0FFE70F98006840F25841C4F2020127
:10432000884224D0FFE70F98006840F27041C4F241
:10433000020188421BD0FFE70F98006840F28841D5
:10434000C4F20201884212D0FFE70F98006840F2E1
:10435000A041C4F20201884209D0FFE70F9800682B
:1043600040F2B841C4F20201884207D1FFE70F983A
:104370000068406900F08000059005E00F98006833
:10438000006800200590FFE7059870B1FFE70F98DF
:10439000C06D00F01F0101208840099988600F99C5
:1043A000486D40F002004865FFE7FFE70E980F995F
:1043B000C96D01F01F01C8404007002840F1A980E5
:1043C000FFE70F9800681021C4F20201884200F054
:1043D0008180FFE70F9800682821C4F2020188421B
:1043E00078D0FFE70F9800684021C4F202018842AC
:1043F00070D0FFE70F9800685821C4F2020188428C
:1044000068D0FFE70F9800687021C4F2020188426B
:1044100060D0FFE70F9800688821C4F2020188424B
:1044200058D0FFE70F980068A021C4F2020188422B
:1044300050D0FFE70F980068B821C4F2020188420B
:1044400048D0FFE70F98006840F21041C4F2020123
:1044500088423FD0FFE70F98006840F22841C4F23D
:104460000201884236D0FFE70F98006840F24041D1
:10447000C4F2020188422DD0FFE70F98006840F295
:104480005841C4F20201884224D0FFE70F98006827
:1044900040F27041C4F2020188421BD0FFE70F983E
:1044A000006840F28841C4F20201884212D0FFE75E
:1044B0000F98006840F2A041C4F20201884209D07E
:1044C000FFE70F98006840F2B841C4F20201884249
:1044D00007D1FFE70F980068006800F00200049021
:1044E00005E00F980068006800200490FFE704983A
:1044F00070B1FFE70F98C06D00F01F0104208840E5
:10450000099988600F99486D40F004004865FFE7FD
:10451000FFE70E980F99C96D01F01F01C840C00652
:10452000002840F1DE80FFE70F9800681021C4F2F8
:104530000201884200F08180FFE70F98006828217F
:10454000C4F20201884278D0FFE70F98006840214A
:10455000C4F20201884270D0FFE70F98006858212A
:10456000C4F20201884268D0FFE70F98006870210A
:10457000C4F20201884260D0FFE70F9800688821EA
:10458000C4F20201884258D0FFE70F980068A021CA
:10459000C4F20201884250D0FFE70F980068B821AA
:1045A000C4F20201884248D0FFE70F98006840F249
:1045B0001041C4F2020188423FD0FFE70F98006823
:1045C00040F22841C4F20201884236D0FFE70F983A
:1045D000006840F24041C4F2020188422DD0FFE75A
:1045E0000F98006840F25841C4F20201884224D07A
:1045F000FFE70F98006840F27041C4F20201884260
:104600001BD0FFE70F98006840F28841C4F2020116
:10461000884212D0FFE70F98006840F2A041C4F230
:104620000201884209D0FFE70F98006840F2B841C4
:10463000C4F20201884207D1FFE70F9800680068C2
:1046400000F00800039006E00F980068006800F092
:1046500004000390FFE70398002841D0FFE70F987C
:10466000C06D00F01F0110208840099988600F98E4
:1046700000680068400300281AD5FFE70F9800681B
:1046800000680003002809D4FFE70F98006C20B1F0
:10469000FFE70F98016C8847FFE708E00F98806CF0
:1046A00020B1FFE70F98816C8847FFE7FFE716E02E
:1046B0000F9800680068C005002807D4FFE70F982E
:1046C0000168086820F008000860FFE70F98006C98
:1046D00020B1FFE70F98016C8847FFE7FFE7FFE78E
:1046E000FFE70E980F99C96D01F01F01C8408006C1
:1046F000002840F12681FFE70F9800681021C4F2DE
:104700000201884200F08180FFE70F9800682821AD
:10471000C4F20201884278D0FFE70F980068402178
:10472000C4F20201884270D0FFE70F980068582158
:10473000C4F20201884268D0FFE70F980068702138
:10474000C4F20201884260D0FFE70F980068882118
:10475000C4F20201884258D0FFE70F980068A021F8
:10476000C4F20201884250D0FFE70F980068B821D8
:10477000C4F20201884248D0FFE70F98006840F277
:104780001041C4F2020188423FD0FFE70F98006851
:1047900040F22841C4F20201884236D0FFE70F9868
:1047A000006840F24041C4F2020188422DD0FFE788
:1047B0000F98006840F25841C4F20201884224D0A8
:1047C000FFE70F98006840F27041C4F2020188428E
:1047D0001BD0FFE70F98006840F28841C4F2020145
:1047E000884212D0FFE70F98006840F2A041C4F25F
:1047F0000201884209D0FFE70F98006840F2B841F3
:10480000C4F20201884207D1FFE70F9800680068F0
:1048100000F01000029006E00F980068006800F0B9
:1048200002000290FFE70298002800F08980FFE76D
:104830000F98C06D00F01F01202088400999886002
:104840000F9890F83500042837D1FFE70F980168DA
:10485000086820F0160008600F980168486920F089
:10486000800048610F98006C20B9FFE70F98806CBA
:1048700038B1FFE70F980168086820F00800086069
:10488000FFE70F98C06D00F01F013F208840099995
:1048900088600F99012081F83500FFE70F9900200B
:1048A00081F83400FFE70F98006D20B1FFE70F9803
:1048B000016D8847FFE700F019BC0F980068006899
:1048C000400300281AD5FFE70F980068006800032E
:1048D000002809D4FFE70F98406C20B1FFE70F983C
:1048E000416C8847FFE708E00F98C06B20B1FFE7F5
:1048F0000F98C16B8847FFE7FFE720E00F9800683B
:104900000068C005002811D4FFE70F980168086807
:1049100020F0100008600F99012081F83500FFE7B2
:104920000F99002081F83400FFE7FFE70F98C06B74
:1049300020B1FFE70F98C16B8847FFE7FFE7FFE76C
:10494000FFE70F98406D002800F0D480FFE70F9834
:10495000406DC007002800F0C480FFE70F990420D5
:1049600081F835000F9800681021C4F202018842D6
:1049700000F08180FFE70F9800682821C4F202014F
:10498000884278D0FFE70F9800684021C4F2020106
:10499000884270D0FFE70F9800685821C4F20201E6
:1049A000884268D0FFE70F9800687021C4F20201C6
:1049B000884260D0FFE70F9800688821C4F20201A6
:1049C000884258D0FFE70F980068A021C4F2020186
:1049D000884250D0FFE70F980068B821C4F2020166
:1049E000884248D0FFE70F98006840F21041C4F2B7
:1049F000020188423FD0FFE70F98006840F228414B
:104A0000C4F20201884236D0FFE70F98006840F2F6
:104A10004041C4F2020188422DD0FFE70F980068A0
:104A200040F25841C4F20201884224D0FFE70F98B7
:104A3000006840F27041C4F2020188421BD0FFE7D7
:104A40000F98006840F28841C4F20201884212D0F7
:104A5000FFE70F98006840F2A041C4F202018842CB
:104A600009D0FFE70F98006840F2B841C4F2020194
:104A7000884207D1FFE70F980168086820F001001D
:104A8000086006E00F980168086820F001000860DF
:104A9000FFE7FFE70B9801300B900A99884201D994
:104AA000FFE707E0FFE70F9800680068C0070028ED
:104AB000F0D1FFE70F9800680068C00728B1FFE752
:104AC0000F99032081F8350004E00F99012081F847
:104AD0003500FFE7FFE70F99002081F83400FFE77A
:104AE000FFE70F98C06C20B1FFE70F98C16C8847B3
:104AF000FFE7FFE7FAE20F980168012045F208425C
:104B0000C5F60202914201904ED0FFE70F9801686E
:104B1000012045F21C42C5F602029142019043D0A9
:104B2000FFE70F980168012045F23042C5F6020206
:104B30009142019038D0FFE70F980168012045F2BB
:104B40004442C5F60202914201902DD0FFE70F9832
:104B50000168012045F25842C5F6020291420190D7
:104B600022D0FFE70F980168012045F26C42C5F69C
:104B700002029142019017D0FFE70F9801680120CF
:104B800045F28042C5F60202914201900CD0FFE747
:104B90000F9800684AF66C31CAF2FD710844B0FA09
:104BA00080F040090190FFE70198C007002800F05D
:104BB0009B82FFE70F98006800680C900D980F9992
:104BC000C96D01F01F01C8404007002840F1D7809F
:104BD000FFE79DF830004007002840F1D080FFE754
:104BE0000F98C06D00F01F010420884008994860AC
:104BF0009DF831000006002818D5FFE79DF8320027
:104C0000C00748B9FFE70F98806C20B1FFE70F9805
:104C1000816C8847FFE708E00F98006C20B1FFE740
:104C20000F98016C8847FFE7FFE7A7E09DF8300089
:104C30008006002800F19980FFE70F980068102196
:104C4000C4F20201884200F08180FFE70F980068FB
:104C50002821C4F20201884278D0FFE70F9800684B
:104C60004021C4F20201884270D0FFE70F9800682B
:104C70005821C4F20201884268D0FFE70F9800680B
:104C80007021C4F20201884260D0FFE70F980068EB
:104C90008821C4F20201884258D0FFE70F980068CB
:104CA000A021C4F20201884250D0FFE70F980068AB
:104CB000B821C4F20201884248D0FFE70F9800688B
:104CC00040F21041C4F2020188423FD0FFE70F9842
:104CD000006840F22841C4F20201884236D0FFE762
:104CE0000F98006840F24041C4F2020188422DD082
:104CF000FFE70F98006840F25841C4F20201884271
:104D000024D0FFE70F98006840F27041C4F202011E
:104D100088421BD0FFE70F98006840F28841C4F238
:104D20000201884212D0FFE70F98006840F2A041CC
:104D3000C4F20201884209D0FFE70F98006840F2F0
:104D4000B841C4F20201884207D1FFE70F98016819
:104D5000086820F00800086006E00F9801680868FD
:104D600020F004000860FFE7FFE70F98006C20B117
:104D7000FFE70F98016C8847FFE7FFE7B3E10D9865
:104D80000F99C96D01F01F01C8408007002840F14C
:104D9000E180FFE79DF830008007002840F1DA80CD
:104DA000FFE70F98C06D00F01F01022088400899AE
:104DB00048609DF831000006002818D5FFE79DF8EF
:104DC0003200C00748B9FFE70F98406C20B1FFE7F9
:104DD0000F98416C8847FFE708E00F98C06B20B13F
:104DE000FFE70F98C16B8847FFE7FFE7B1E09DF849
:104DF00030008006002800F1A380FFE70F980068CC
:104E00001021C4F20201884200F08180FFE70F9870
:104E100000682821C4F20201884278D0FFE70F9889
:104E200000684021C4F20201884270D0FFE70F9869
:104E300000685821C4F20201884268D0FFE70F9849
:104E400000687021C4F20201884260D0FFE70F9829
:104E500000688821C4F20201884258D0FFE70F9809
:104E60000068A021C4F20201884250D0FFE70F98E9
:104E70000068B821C4F20201884248D0FFE70F98C9
:104E8000006840F21041C4F2020188423FD0FFE7BF
:104E90000F98006840F22841C4F20201884236D0DF
:104EA000FFE70F98006840F24041C4F202018842D7
:104EB0002DD0FFE70F98006840F25841C4F202017C
:104EC000884224D0FFE70F98006840F27041C4F296
:104ED000020188421BD0FFE70F98006840F288412A
:104EE000C4F20201884212D0FFE70F98006840F236
:104EF000A041C4F20201884209D0FFE70F98006880
:104F000040F2B841C4F20201884207D1FFE70F988E
:104F10000168086820F01400086006E00F98016836
:104F2000086820F00A000860FFE70F99012081F867
:104F30003500FFE70F99002081F83400FFE7FFE715
:104F40000F98C06B20B1FFE70F98C16B8847FFE750
:104F5000FFE7C7E00D980F99C96D01F01F01C84028
:104F60000007002840F1BC80FFE79DF830000007F3
:104F7000002840F1B580FFE70F9800681021C4F2C7
:104F80000201884200F08180FFE70F980068282125
:104F9000C4F20201884278D0FFE70F9800684021F0
:104FA000C4F20201884270D0FFE70F9800685821D0
:104FB000C4F20201884268D0FFE70F9800687021B0
:104FC000C4F20201884260D0FFE70F980068882190
:104FD000C4F20201884258D0FFE70F980068A02170
:104FE000C4F20201884250D0FFE70F980068B82150
:104FF000C4F20201884248D0FFE70F98006840F2EF
:105000001041C4F2020188423FD0FFE70F980068C8
:1050100040F22841C4F20201884236D0FFE70F98DF
:10502000006840F24041C4F2020188422DD0FFE7FF
:105030000F98006840F25841C4F20201884224D01F
:10504000FFE70F98006840F27041C4F20201884205
:105050001BD0FFE70F98006840F28841C4F20201BC
:10506000884212D0FFE70F98006840F2A041C4F2D6
:105070000201884209D0FFE70F98006840F2B8416A
:10508000C4F20201884207D1FFE70F98016808685F
:1050900020F01C00086006E00F980168086820F006
:1050A0000E000860FFE70F98C06D00F01F0101209F
:1050B00000FA01F1089A51600F9948650F9981F83B
:1050C0003500FFE70F99002081F83400FFE70F98C3
:1050D000C06C20B1FFE70F98C16C8847FFE700E084
:1050E000FFE7FFE7FFE700E0FFE7FFE710B080BD65
:1050F00080B58EB00C9002F07FF90A900C9828B918
:10510000FFE701208DF8370000F09FBC0C98016884
:1051100001201022C4F202029142079000F0A38005
:10512000FFE70C98016801202822C4F20202914294
:10513000079000F09880FFE70C980168012040225A
:10514000C4F202029142079000F08D80FFE70C98B4
:10515000016801205822C4F202029142079000F037
:105160008280FFE70C98016801207022C4F20202DD
:105170009142079077D0FFE70C98016801208822C0
:10518000C4F20202914207906DD0FFE70C980168CB
:105190000120A022C4F202029142079063D0FFE7EF
:1051A0000C9801680120B822C4F2020291420790D3
:1051B00059D0FFE70C980168012040F21042C4F278
:1051C0000202914207904ED0FFE70C98016801203F
:1051D00040F22842C4F202029142079043D0FFE716
:1051E0000C980168012040F24042C4F20202914250
:1051F000079038D0FFE70C980168012040F2584230
:10520000C4F20202914207902DD0FFE70C9801688A
:10521000012040F27042C4F202029142079022D073
:10522000FFE70C980168012040F28842C4F20202B4
:105230009142079017D0FFE70C980168012040F2D7
:10524000A042C4F20202914207900CD0FFE70C98F2
:1052500000684FF64831CBF6FD710844B0FA80F093
:1052600040090790FFE70798C007002800F0788101
:10527000FFE70C98406A08B1FFE7FFE70C990220AE
:1052800081F83500FFE70C99002081F83400FFE732
:105290000C9800681021C4F20201884200F081805D
:1052A000FFE70C9800682821C4F20201884278D0F8
:1052B000FFE70C9800684021C4F20201884270D0D8
:1052C000FFE70C9800685821C4F20201884268D0B8
:1052D000FFE70C9800687021C4F20201884260D098
:1052E000FFE70C9800688821C4F20201884258D078
:1052F000FFE70C980068A021C4F20201884250D058
:10530000FFE70C980068B821C4F20201884248D037
:10531000FFE70C98006840F21041C4F20201884295
:105320003FD0FFE70C98006840F22841C4F2020128
:10533000884236D0FFE70C98006840F24041C4F242
:10534000020188422DD0FFE70C98006840F25841D6
:10535000C4F20201884224D0FFE70C98006840F2B2
:105360007041C4F2020188421BD0FFE70C9800682C
:1053700040F28841C4F20201884212D0FFE70C9843
:10538000006840F2A041C4F20201884209D0FFE760
:105390000C98006840F2B841C4F20201884207D17B
:1053A000FFE70C980168086820F00100086006E03B
:1053B0000C980168086820F001000860FFE7FFE72B
:1053C0000C9800680068C00798B1FFE702F014F875
:1053D0000A99401A06280BD3FFE70C99202048654C
:1053E0000C99032081F8350001208DF837002CE35B
:1053F000E6E70C98006800680B900B9848F23F01B4
:10540000CFF6106108400B900C998868D1F80CC059
:105410000B694A6940EA0C00184310438A6910433B
:10542000CA691043096A01430B9808430B900C9812
:10543000406A042808D1FFE70C99C86A096B014348
:105440000B9808430B90FFE70C984068292807D376
:10545000FFE70C98416801202F29069036D3FFE71B
:105460000C9840683F2807D3FFE70C98416801205B
:10547000432906902AD3FFE70C984068472807D3B2
:10548000FFE70C9841680120492906901ED3FFE7E9
:105490000C9840684F2807D3FFE70C98416801201B
:1054A0005329069012D3FFE70C9841680020742915
:1054B000059008D3FFE70C9841680020782938BF91
:1054C00001200590FFE705980690FFE70698C007C2
:1054D00028B1FFE70B9840F480100B90FFE70B9882
:1054E0000C99096808600C98006840690B900B984B
:1054F00020F007000B900C98416A0B9808430B9022
:105500000C98406A04281AD1FFE70C98816A0B981E
:1055100008430B900C98C06A80B1FFE70C98FCF729
:105520005BFB50B1FFE70C99402048650C990120C6
:1055300081F835008DF8370087E2FFE7FFE70B9829
:105540000C99096848610C98FCF70AF909900C98C5
:10555000C06D00F01F013F2088400999886027E155
:105560000C980168012045F20842C5F602029142FA
:1055700004904ED0FFE70C980168012045F21C42D0
:10558000C5F602029142049043D0FFE70C980168EF
:10559000012045F23042C5F602029142049038D013
:1055A000FFE70C980168012045F24442C5F602026B
:1055B000914204902DD0FFE70C980168012045F23C
:1055C0005842C5F602029142049022D0FFE70C989F
:1055D0000168012045F26C42C5F602029142049036
:1055E00017D0FFE70C980168012045F28042C5F60C
:1055F0000202914204900CD0FFE70C9800684AF632
:105600006C31CAF2FD710844B0FA80F04009049090
:10561000FFE70498C007002800F0BE80FFE70C9861
:105620000168012045F20842C5F60202914203904A
:105630004ED0FFE70C980168012045F21C42C5F6E8
:1056400002029142039043D0FFE70C9801680120C9
:1056500045F23042C5F602029142039038D0FFE78E
:105660000C980168012045F24442C5F602029142BD
:1056700003902DD0FFE70C980168012045F25842B5
:10568000C5F602029142039022D0FFE70C98016810
:10569000012045F26C42C5F602029142039017D0F8
:1056A000FFE70C980168012045F28042C5F602022E
:1056B000914203900CD0FFE70C9800684AF66C31D9
:1056C000CAF2FD710844B0FA80F040090390FFE788
:1056D0000398C00708B1FFE7FFE70C99022081F8A3
:1056E0003500FFE70C99002081F83400FFE70C98A3
:1056F000006800680B900B986FF310100B900C98DB
:105700008068402803D1FFE71020029008E00C9841
:1057100080688038B0FA80F0400980030290FFE78B
:1057200002980C99D1F80CE0D1F810C04B698A6945
:1057300040EADE0040EADC0040EAD30040EAD20062
:10574000CA6940EAD200096A40EA11110B9808437D
:105750000B900B980C99096808600C9908684AF638
:10576000F832CAF2FD7210444CF6CD42CCF6CC426F
:10577000A0FB02026FF0030000EA9200C8650C98DB
:10578000FBF7EEFF08900C98C06D00F01F010120A0
:105790008840089948600AE00C99402048650C99B7
:1057A000032081F8350001208DF837004DE1FFE737
:1057B0000C98016801201022C4F20202914201906B
:1057C00000F00381FFE70C98016801202822C4F251
:1057D00002029142019000F0F880FFE70C98016806
:1057E00001204022C4F202029142019000F0ED80BB
:1057F000FFE70C98016801205822C4F2020291428E
:10580000019000F0E280FFE70C980168012070220F
:10581000C4F202029142019000F0D780FFE70C9899
:10582000016801208822C4F202029142019000F036
:10583000CC80FFE70C9801680120A022C4F202028C
:105840009142019000F0C180FFE70C9801680120AF
:10585000B822C4F202029142019000F0B680FFE744
:105860000C980168012040F21042C4F202029142F9
:10587000019000F0AA80FFE70C980168012040F237
:105880002842C4F202029142019000F09E80FFE79C
:105890000C980168012040F24042C4F20202914299
:1058A000019000F09280FFE70C980168012040F21F
:1058B0005842C4F202029142019000F08680FFE754
:1058C0000C980168012040F27042C4F20202914239
:1058D00001907AD0FFE70C980168012040F28842DD
:1058E000C4F20202914201906FD0FFE70C98016868
:1058F000012040F2A042C4F202029142019064D021
:10590000FFE70C980168012040F2B842C4F202029D
:105910009142019059D0FFE70C980168012045F2AF
:105920000842C5F60202914201904ED0FFE70C9862
:105930000168012045F21C42C5F602029142019025
:1059400043D0FFE70C980168012045F23042C5F6CC
:1059500002029142019038D0FFE70C9801680120C3
:1059600045F24442C5F60202914201902DD0FFE774
:105970000C980168012045F25842C5F60202914296
:10598000019022D0FFE70C980168012045F26C429B
:10599000C5F602029142019017D0FFE70C9801680A
:1059A000012045F28042C5F60202914201900CD0DE
:1059B000FFE70C9800684AF66C31CAF2FD710844A2
:1059C000B0FA80F040090190FFE70198C00790B35A
:1059D000FFE70C98FBF7ACFF0C988068802804D197
:1059E000FFE70C9900204860FFE70C990879096EE1
:1059F00008600C98416E806E48600C98406888B1D1
:105A0000FFE70C98406808280CD8FFE70C98FCF7D3
:105A10004BF80C98C16E002008600C98016F406F25
:105A2000486007E00C990020C8660C9908670C993B
:105A30004867FFE7FFE70C99002048650C9A0121B1
:105A400082F835108DF83700FFE79DF837000EB06B
:105A500080BD00000000000080B584B0039001F01C
:105A6000CBFC0290039801900198013048B1FFE708
:105A700041F2C400C2F2004001780198084401904C
:105A8000FFE7FFE701F0B8FC0299401A019988424C
:105A900001D2FFE7F6E704B080BD0000000000007F
:105AA00085B0039002910192039890F898008DF8C8
:105AB00003009DF80300012805D0FFE79DF80300CF
:105AC00002285DD1FFE7029803990968896D0842B1
:105AD00007D1FFE703980168C86D40F00100C86571
